OP01443010033404520181221N        1858        MERCURY S.R.L.                                                        VIA SEMINELLA,50L/3                                                   BUSALLA                            16012    GEIT 1858        MERCURY S.R.L.                                                        VIA SEMINELLA,50L/3                                                   BUSALLA                            16012    GEIT SEDEKLOG01315690998                                   ST                                           18/21065       20181221STESSOdestinatario                       *                             010/7261937    Vend. cliente                 NRD                                                          0000000000000099                                  GENOVA                            GE02                          GENOVA                            GE02
DP0144301003340450000018034052489508                           0000003ST                 
DP0144301003340450000028034052583114                           0000003PC                 
DP0144301003340450000038034052665315                           0000002PC                 
DP0144301003340450000048034052386951                           0000003PC                 
DP0144301003340450000058034052578998                           0000003PC                 
DP0144301003340450000068034052571227                           0000003ST                 
DP0144301003340450000078034052571258                           0000003ST                 
DP0144301003340450000088034052662963                           0000003PC                 
DP0144301003340450000098034052398091                           0000002ST                 
DP0144301003340450000108034052592093                           0000036PC                 
DP0144301003340450000118034052574754                           0000002ST                 
DP0144301003340450000128034052563468                           0000003PC                 
DP0144301003340450000138034052588614                           0000006PC                 
DP0144301003340450000148034052588652                           0000003PC                 
DP0144301003340450000158034052563352                           0000002PC                 
DP0144301003340450000168034052214476                           0000004PC                 
DP0144301003340450000178034052590860                           0000004PC                 
DP0144301003340450000188034052588393                           0000002PC                 
DP0144301003340450000198034052573320                           0000002PC                 
DP0144301003340450000208034052499699                           0000002PC                 
DP0144301003340450000218034052570992                           0000002PC                 
DP0144301003340450000228034052383899                           0000002PC                 
DP0144301003340450000238034052383905                           0000002PC                 
DP0144301003340450000248034052587150                           0000002PC                 
DP0144301003340450000258034052664479                           0000024PC                 
