OP01442980033402120181220N        1858        MERCURY S.R.L.                                                        VIA SEMINELLA,50L/3                                                   BUSALLA                            16012    GEIT 1858        MERCURY S.R.L.                                                        VIA SEMINELLA,50L/3                                                   BUSALLA                            16012    GEIT SEDEKLOG01315690998                                   ST                                           18/21057       20181220RCURY.MERCURY S.R.L.                     *                             010/7261937    Vend. cliente                 NRD                                                          0000000000000099                                  GENOVA                            GE02                          GENOVA                            GE02
DP0144298003340210000018034052478113                           0000001PC                 
DP0144298003340210000028034052487566                           0000001PC                 
DP0144298003340210000038034052580502                           0000001PC                 
DP0144298003340210000048034052489508                           0000003ST                 
DP0144298003340210000058034052583114                           0000003PC                 
DP0144298003340210000068034052665315                           0000002PC                 
DP0144298003340210000078034052386951                           0000003PC                 
DP0144298003340210000088034052578998                           0000003PC                 
DP0144298003340210000098034052270564                           0000003PC                 
DP0144298003340210000108034052571227                           0000003ST                 
DP0144298003340210000118034052571258                           0000003ST                 
DP0144298003340210000128034052483124                           0000001ST                 
DP0144298003340210000138034052662963                           0000003PC                 
DP0144298003340210000148034052398091                           0000002ST                 
DP0144298003340210000158034052592093                           0000036PC                 
DP0144298003340210000168033673927710                           0000001PC                 
DP0144298003340210000178034052574754                           0000002ST                 
DP0144298003340210000188034052563468                           0000003PC                 
DP0144298003340210000198034052561426                           0000001PC                 
DP0144298003340210000208034052588614                           0000006PC                 
DP0144298003340210000218034052588652                           0000003PC                 
DP0144298003340210000228034052583985                           0000009PC                 
DP0144298003340210000238034052570510                           0000001PC                 
DP0144298003340210000248034052563352                           0000002PC                 
DP0144298003340210000258034052214476                           0000004PC                 
DP0144298003340210000268034052561167                           0000001PC                 
DP0144298003340210000278034052590860                           0000004PC                 
DP0144298003340210000288034052599207                           0000001PC                 
DP0144298003340210000298034052599153                           0000001PC                 
DP0144298003340210000308034052580397                           0000001PC                 
DP0144298003340210000368034052598279                           0000001PC                 
DP0144298003340210000378034052570992                           0000002PC                 
DP0144298003340210000388034052484497                           0000001PC                 
DP0144298003340210000398034052562355                           0000001PC                 
DP0144298003340210000408034052562362                           0000001PC                 
DP0144298003340210000418034052383899                           0000002PC                 
DP0144298003340210000428034052383905                           0000002PC                 
DP0144298003340210000438034052575980                           0000001PC                 
DP0144298003340210000448034052576031                           0000001PC                 
DP0144298003340210000458034052587150                           0000002PC                 
DP0144298003340210000468034052664479                           0000024PC                 
DP0144298003340210000478034052665094                           0000001PC                 
DP0144298003340210000318034052588393                           0000002PC                 
DP0144298003340210000328034052399340                           0000001PC                 
DP0144298003340210000338034052484930                           0000001PC                 
DP0144298003340210000348034052573320                           0000002PC                 
DP0144298003340210000358034052499699                           0000002PC                 
