OP01420580032429520181022N        1990        KASANOVA S.P.A.                                                       VIALE MONTEROSA, 91                                                   ARCORE                             20043    MIIT 1990        (SOVICO) KASANOVA                                                     PIAZZA EDMONDO FRETTE, 7                                              SOVICO                             20050    MIIT SEDEKLOG00743020968                                   ST                                           18/16684       20181008ZUST  ZUST AMBROSETTI                    *                             137316 StefPepeVend. cliente                 NRBFM12+5                                                    0000000000000086  SOVICO                               -                               -                               -                               -
DP0142058003242950105938034052692625                           0000006PC                 
DP0142058003242950105958034052692977                           0000001PC                 
DP0142058003242950105968034052695190                           0000002PC                 
DP0142058003242950105978034052695428                           0000004PC                 
DP0142058003242950105988034052695572                           0000006PC                 
DP0142058003242950106008034052696036                           0000100PC                 
DP0142058003242950106018034052697057                           0000004PC                 
DP0142058003242950106028034052697095                           0000012PC                 
DP0142058003242950106038034052697149                           0000024PC                 
DP0142058003242950106048034052697156                           0000024PC                 
DP0142058003242950106058034052697323                           0000012PC                 
DP0142058003242950106078034052697385                           0000012PC                 
DP0142058003242950106088034052697415                           0000012PC                 
DP0142058003242950106098034052697460                           0000012PC                 
DP0142058003242950106108034052697491                           0000012PC                 
DP0142058003242950106118034052697514                           0000024PC                 
DP0142058003242950106128034052697576                           0000003PC                 
DP0142058003242950106138034052697651                           0000006PC                 
DP0142058003242950106148034052697729                           0000006PC                 
DP0142058003242950106158034052697736                           0000006PC                 
DP0142058003242950106168034052697767                           0000024PC                 
DP0142058003242950106178034052697842                           0000008PC                 
DP0142058003242950106188034052699198                           0000024PC                 
DP0142058003242950106198034052692830                           0000048PC                 
DP0142058003242950106208034052692847                           0000048PC                 
DP0142058003242950106218034052692861                           0000004PC                 
DP0142058003242950106228034052693707                           0000024ST                 
DP0142058003242950106238034052693752                           0000024PC                 
DP0142058003242950106248034052693806                           0000024ST                 
DP0142058003242950106258034052695497                           0000002PC                 
DP0142058003242950106268034052695565                           0000002PC                 
DP0142058003242950106288034052695923                           0000024PC                 
DP0142058003242950106298034052695947                           0000012PC                 
DP0142058003242950106318034052697187                           0000012PC                 
OP01435740033221920181129N        1990        KASANOVA S.P.A.                                                       VIALE MONTEROSA, 91                                                   ARCORE                             20043    MIIT 1990        TUVIA ITALIA                                                          VIA MARZORATI  13/A                                                   NERVIANO                                    MIIT SEDEKLOG00743020968                                   ST                                           18/20314       20181129ND                                                                     137316 StefPepeVend. cliente                 NRBFM12+5                                                    0000000000000099NERVIAVE                               -                               -                               -                               -
DP0143574003322190000258034052690393                           0000001PC                 
