OP01391340032156720181015N        1990        KASANOVA S.P.A.                                                       VIALE MONTEROSA, 91                                                   ARCORE                             20043    MIIT 1990        (RMMARCON) KASANOVA +                                                 VIALE MARCONI, 122 SCARICO VIA BORGHESANO LUCCHESE 40                 ROMA                               00146    RMIT SEDEKLOG00743020968                                   ST                                           18/15392       20180925ZUST  ZUST AMBROSETTI                    E.R.   *                      137316 StefPepeVend. cliente                 NRBFM12+5                                                    0000000000000095RMMARCON                               -                               -                            ROMA                            RM09
DP0139134003215670020168034052457873                           0000020PC                 
DP0139134003215670020178034052457897                           0000020PC                 
DP0139134003215670020198034052457927                           0000020PC                 
DP0139134003215670020208034052457934                           0000016ST                 
DP0139134003215670020228034052458252                           0000020PC                 
DP0139134003215670020238034052458443                           0000036PC                 
DP0139134003215670020248034052458450                           0000072PC                 
DP0139134003215670020258034052458467                           0000024PC                 
DP0139134003215670020268034052458474                           0000024PC                 
DP0139134003215670020278034052458481                           0000012PC                 
DP0139134003215670020288034052458498                           0000024PC                 
DP0139134003215670020298034052458504                           0000012PC                 
DP0139134003215670020308034052458511                           0000024PC                 
DP0139134003215670020318034052458528                           0000024PC                 
DP0139134003215670020328034052458535                           0000015PC                 
DP0139134003215670020338034052458542                           0000015PC                 
DP0139134003215670020348034052458559                           0000024ST                 
DP0139134003215670020358034052458566                           0000024PC                 
DP0139134003215670020368034052458634                           0000012PC                 
DP0139134003215670020378034052458641                           0000012PC                 
DP0139134003215670020388034052458658                           0000012PC                 
DP0139134003215670020398034052458665                           0000024PC                 
DP0139134003215670020408034052458672                           0000012PC                 
DP0139134003215670020418034052458689                           0000012PC                 
DP0139134003215670020428034052598316                           0000012PC                 
DP0139134003215670020438034052690157                           0000012PC                 
DP0139134003215670020448034052690171                           0000006PC                 
DP0139134003215670020458034052690256                           0000024PC                 
DP0139134003215670020468034052690270                           0000012PC                 
DP0139134003215670020478034052690652                           0000012PC                 
DP0139134003215670020488034052690676                           0000012PC                 
DP0139134003215670020498034052692649                           0000012PC                 
DP0139134003215670020528034052693011                           0000004PC                 
DP0139134003215670020538034052693035                           0000018PC                 
DP0139134003215670020548034052693059                           0000024PC                 
DP0139134003215670020558034052693080                           0000004PC                 
DP0139134003215670020568034052693103                           0000018PC                 
DP0139134003215670020578034052693127                           0000024PC                 
DP0139134003215670020588034052693141                           0000004PC                 
DP0139134003215670020598034052693158                           0000018PC                 
DP0139134003215670020608034052693165                           0000024PC                 
DP0139134003215670020618034052693189                           0000024PC                 
DP0139134003215670020628034052693219                           0000020PC                 
DP0139134003215670020638034052693288                           0000004PC                 
DP0139134003215670020648034052693301                           0000004PC                 
DP0139134003215670020658034052693325                           0000004PC                 
DP0139134003215670020668034052693349                           0000004PC                 
DP0139134003215670020678034052693356                           0000036PC                 
DP0139134003215670020698034052693394                           0000012PC                 
DP0139134003215670020748034052693448                           0000012PC                 
DP0139134003215670020758034052693455                           0000032PC                 
DP0139134003215670020768034052693462                           0000032PC                 
DP0139134003215670020778034052693479                           0000016PC                 
DP0139134003215670020788034052693486                           0000018PC                 
DP0139134003215670020798034052693493                           0000018PC                 
DP0139134003215670020808034052693509                           0000018PC                 
DP0139134003215670020818034052693516                           0000012PC                 
DP0139134003215670020828034052693523                           0000018PC                 
DP0139134003215670020838034052693547                           0000032PC                 
DP0139134003215670020848034052693561                           0000018PC                 
DP0139134003215670020858034052693585                           0000032PC                 
DP0139134003215670020868034052693592                           0000012PC                 
DP0139134003215670020878034052693608                           0000020ST                 
DP0139134003215670020888034052693691                           0000036ST                 
DP0139134003215670020898034052693721                           0000036PC                 
DP0139134003215670020908034052693745                           0000024PC                 
DP0139134003215670020918034052693776                           0000024PC                 
DP0139134003215670020928034052693790                           0000012PC                 
DP0139134003215670020958034052694469                           0000006PC                 
DP0139134003215670020968034052694605                           0000012PC                 
DP0139134003215670020978034052694612                           0000012PC                 
DP0139134003215670021018034052694674                           0000012PC                 
DP0139134003215670021028034052694681                           0000006PC                 
DP0139134003215670021048034052694933                           0000003PC                 
DP0139134003215670021058034052694957                           0000002PC                 
DP0139134003215670021068034052695084                           0000002PC                 
DP0139134003215670021078034052695183                           0000002PC                 
DP0139134003215670021088034052695190                           0000002PC                 
DP0139134003215670021128034052695237                           0000030PC                 
DP0139134003215670021138034052695312                           0000012PC                 
DP0139134003215670021148034052695336                           0000006PC                 
DP0139134003215670021158034052695350                           0000004PC                 
DP0139134003215670021168034052695374                           0000002PC                 
DP0139134003215670021178034052695381                           0000006PC                 
DP0139134003215670021188034052695398                           0000004PC                 
DP0139134003215670021198034052695404                           0000004PC                 
DP0139134003215670021208034052695428                           0000004PC                 
DP0139134003215670021218034052695435                           0000012PC                 
DP0139134003215670021228034052695459                           0000008PC                 
DP0139134003215670021248034052695596                           0000024ST                 
DP0139134003215670021258034052695602                           0000024ST                 
DP0139134003215670021268034052695619                           0000012ST                 
DP0139134003215670021278034052695671                           0000001PC                 
DP0139134003215670021288034052695688                           0000001PC                 
DP0139134003215670021298034052695695                           0000001PC                 
DP0139134003215670021308034052695701                           0000001PC                 
DP0139134003215670021318034052695718                           0000004PC                 
DP0139134003215670021328034052695725                           0000004PC                 
DP0139134003215670021338034052695732                           0000004PC                 
DP0139134003215670021348034052695756                           0000002PC                 
DP0139134003215670021358034052695770                           0000002PC                 
DP0139134003215670021398034052696159                           0000004ST                 
DP0139134003215670021408034052696173                           0000004ST                 
DP0139134003215670021418034052696197                           0000004ST                 
DP0139134003215670021428034052696210                           0000004ST                 
DP0139134003215670021558034052696463                           0000004PC                 
DP0139134003215670021568034052696487                           0000004PC                 
DP0139134003215670021578034052696500                           0000004PC                 
DP0139134003215670021588034052696524                           0000012PC                 
DP0139134003215670021598034052696548                           0000004PC                 
DP0139134003215670021608034052696562                           0000004PC                 
DP0139134003215670021618034052696586                           0000008PC                 
DP0139134003215670021628034052696609                           0000008PC                 
DP0139134003215670021638034052696623                           0000018PC                 
DP0139134003215670021648034052696630                           0000002PC                 
DP0139134003215670021658034052696647                           0000006PC                 
DP0139134003215670021668034052696654                           0000006PC                 
DP0139134003215670021678034052696678                           0000008PC                 
DP0139134003215670021688034052696692                           0000012PC                 
DP0139134003215670021698034052696715                           0000024PC                 
DP0139134003215670021708034052696739                           0000012PC                 
DP0139134003215670021718034052696753                           0000024PC                 
DP0139134003215670021728034052696760                           0000006PC                 
DP0139134003215670022038034052697774                           0000012PC                 
DP0139134003215670022058034052697835                           0000008PC                 
DP0139134003215670022068034052697842                           0000012PC                 
DP0139134003215670022078034052697866                           0000012PC                 
DP0139134003215670022138034052697958                           0000024PC                 
DP0139134003215670022148034052697965                           0000012PC                 
DP0139134003215670022198034052698085                           0000006PC                 
DP0139134003215670022288034052698498                           0000003PC                 
DP0139134003215670022298034052698511                           0000003PC                 
DP0139134003215670022308034052698528                           0000002PC                 
DP0139134003215670022318034052698535                           0000002PC                 
DP0139134003215670022328034052698559                           0000003PC                 
DP0139134003215670022418034052698801                           0000001PC                 
DP0139134003215670022438034052698986                           0000012PC                 
DP0139134003215670022448034052698993                           0000008PC                 
DP0139134003215670022458034052699006                           0000006PC                 
DP0139134003215670022468034052699013                           0000024PC                 
DP0139134003215670022478034052699037                           0000096PC                 
DP0139134003215670022498034052699099                           0000072ST                 
DP0139134003215670022508034052699136                           0000024PC                 
DP0139134003215670022518034052699150                           0000024PC                 
DP0139134003215670022528034052699587                           0000048ST                 
DP0139134003215670022538034052699594                           0000048PC                 
DP0139134003215670022548034052699600                           0000036PC                 
DP0139134003215670022558034052699648                           0000048PC                 
DP0139134003215670022568034052699655                           0000096PC                 
DP0139134003215670022578034052699662                           0000036PC                 
DP0139134003215670022588034052699679                           0000096PC                 
DP0139134003215670022598034052699686                           0000048PC                 
DP0139134003215670022608034052699709                           0000012PC                 
DP0139134003215670022618034052699716                           0000012PC                 
DP0139134003215670022628034052699723                           0000012PC                 
DP0139134003215670022638034052699730                           0000024PC                 
DP0139134003215670022648034052699747                           0000012PC                 
DP0139134003215670022658034052699754                           0000012PC                 
DP0139134003215670022668034052699761                           0000012PC                 
DP0139134003215670022678034052699778                           0000012ST                 
DP0139134003215670022688034052699785                           0000024PC                 
DP0139134003215670022698034052699792                           0000002PC                 
DP0139134003215670022708034052699808                           0000002PC                 
DP0139134003215670022718034052699815                           0000012PC                 
DP0139134003215670022728034052699822                           0000006PC                 
DP0139134003215670022738034052699839                           0000012PC                 
DP0139134003215670022748034052699846                           0000024PC                 
DP0139134003215670022778034052699938                           0000024PC                 
DP0139134003215670022788034052699945                           0000012PC                 
DP0139134003215670022798034052699952                           0000012PC                 
DP0139134003215670022808034052699969                           0000012PC                 
DP0139134003215670022818034052699976                           0000024PC                 
DP0139134003215670022828034052699983                           0000012PC                 
DP0139134003215670022838034052699990                           0000012PC                 
OP01391340032156920181015N        1990        KASANOVA S.P.A.                                                       VIALE MONTEROSA, 91                                                   ARCORE                             20043    MIIT 1990        (ROMA13) KASANOVA+                                                    VIA TIBURTINA 375/377                                                 ROMA                               00159    RMIT SEDEKLOG00743020968                                   ST                                           18/15393       20180925ZUST  ZUST AMBROSETTI                    E.R.   *                      137316 StefPepeVend. cliente                 NRBFM12+5                                                    0000000000000095  ROMA13                               -                               -                            ROMA                            RM01
DP0139134003215690022848034052457873                           0000010PC                 
DP0139134003215690022858034052457897                           0000010PC                 
DP0139134003215690022878034052457927                           0000010PC                 
DP0139134003215690022888034052457934                           0000016ST                 
DP0139134003215690022908034052458252                           0000010PC                 
DP0139134003215690022918034052458443                           0000024PC                 
DP0139134003215690022928034052458450                           0000048PC                 
DP0139134003215690022938034052458467                           0000012PC                 
DP0139134003215690022948034052458474                           0000012PC                 
DP0139134003215690022958034052458481                           0000012PC                 
DP0139134003215690022968034052458498                           0000012PC                 
DP0139134003215690022978034052458504                           0000012PC                 
DP0139134003215690022988034052458511                           0000012PC                 
DP0139134003215690022998034052458528                           0000012PC                 
DP0139134003215690023008034052458535                           0000010PC                 
DP0139134003215690023018034052458542                           0000010PC                 
DP0139134003215690023028034052458566                           0000024PC                 
DP0139134003215690023038034052458634                           0000012PC                 
DP0139134003215690023048034052458641                           0000012PC                 
DP0139134003215690023058034052458658                           0000006PC                 
DP0139134003215690023068034052458665                           0000012PC                 
DP0139134003215690023078034052458672                           0000006PC                 
DP0139134003215690023088034052458689                           0000012PC                 
DP0139134003215690023098034052690157                           0000012PC                 
DP0139134003215690023108034052690171                           0000006PC                 
DP0139134003215690023118034052690256                           0000024PC                 
DP0139134003215690023128034052690270                           0000012PC                 
DP0139134003215690023138034052692649                           0000012PC                 
DP0139134003215690023158034052693011                           0000004PC                 
DP0139134003215690023168034052693035                           0000018PC                 
DP0139134003215690023178034052693059                           0000024PC                 
DP0139134003215690023188034052693080                           0000004PC                 
DP0139134003215690023198034052693103                           0000018PC                 
DP0139134003215690023208034052693127                           0000024PC                 
DP0139134003215690023218034052693141                           0000004PC                 
DP0139134003215690023228034052693158                           0000018PC                 
DP0139134003215690023238034052693165                           0000024PC                 
DP0139134003215690023248034052693189                           0000024PC                 
DP0139134003215690023258034052693288                           0000004PC                 
DP0139134003215690023268034052693301                           0000004PC                 
DP0139134003215690023278034052693325                           0000004PC                 
DP0139134003215690023288034052693349                           0000004PC                 
DP0139134003215690023298034052693356                           0000036PC                 
DP0139134003215690023318034052693394                           0000012PC                 
DP0139134003215690023368034052693448                           0000012PC                 
DP0139134003215690023378034052693462                           0000032PC                 
DP0139134003215690023388034052693479                           0000016PC                 
DP0139134003215690023398034052693486                           0000018PC                 
DP0139134003215690023408034052693509                           0000018PC                 
DP0139134003215690023418034052693516                           0000012PC                 
DP0139134003215690023428034052693523                           0000018PC                 
DP0139134003215690023438034052693561                           0000018PC                 
DP0139134003215690023448034052693592                           0000012PC                 
DP0139134003215690023458034052693608                           0000020ST                 
DP0139134003215690023468034052693691                           0000036ST                 
DP0139134003215690023478034052693721                           0000036PC                 
DP0139134003215690023488034052693745                           0000024PC                 
DP0139134003215690023498034052693776                           0000024PC                 
DP0139134003215690023528034052694469                           0000006PC                 
DP0139134003215690023538034052694605                           0000012PC                 
DP0139134003215690023548034052694612                           0000012PC                 
DP0139134003215690023588034052694674                           0000012PC                 
DP0139134003215690023608034052694933                           0000003PC                 
DP0139134003215690023618034052694957                           0000002PC                 
DP0139134003215690023628034052695237                           0000030PC                 
DP0139134003215690023638034052695312                           0000012PC                 
DP0139134003215690023648034052695336                           0000006PC                 
DP0139134003215690023658034052695350                           0000004PC                 
DP0139134003215690023668034052695374                           0000002PC                 
DP0139134003215690023678034052695404                           0000004PC                 
DP0139134003215690023688034052695428                           0000004PC                 
DP0139134003215690023698034052695435                           0000008PC                 
DP0139134003215690023718034052695596                           0000024ST                 
DP0139134003215690023728034052695619                           0000012ST                 
DP0139134003215690023738034052695718                           0000004PC                 
DP0139134003215690023748034052695725                           0000004PC                 
DP0139134003215690023758034052695732                           0000004PC                 
DP0139134003215690023788034052696173                           0000004ST                 
DP0139134003215690023868034052696463                           0000004PC                 
DP0139134003215690023878034052696487                           0000004PC                 
DP0139134003215690023888034052696500                           0000004PC                 
DP0139134003215690023898034052696524                           0000012PC                 
DP0139134003215690023908034052696548                           0000004PC                 
DP0139134003215690023918034052696562                           0000004PC                 
DP0139134003215690023928034052696586                           0000008PC                 
DP0139134003215690023938034052696609                           0000004PC                 
DP0139134003215690023948034052696623                           0000012PC                 
DP0139134003215690023958034052696647                           0000006PC                 
DP0139134003215690023968034052696654                           0000006PC                 
DP0139134003215690023978034052696739                           0000012PC                 
DP0139134003215690024248034052697835                           0000008PC                 
DP0139134003215690024258034052697842                           0000012PC                 
DP0139134003215690024268034052697866                           0000012PC                 
DP0139134003215690024318034052697965                           0000012PC                 
DP0139134003215690024358034052698085                           0000006PC                 
DP0139134003215690024448034052698498                           0000003PC                 
DP0139134003215690024458034052698511                           0000003PC                 
DP0139134003215690024468034052698559                           0000003PC                 
DP0139134003215690024548034052698986                           0000012PC                 
DP0139134003215690024558034052698993                           0000008PC                 
DP0139134003215690024568034052699013                           0000024PC                 
DP0139134003215690024578034052699037                           0000048PC                 
DP0139134003215690024598034052699099                           0000036ST                 
DP0139134003215690024608034052699136                           0000024PC                 
DP0139134003215690024618034052699150                           0000024PC                 
DP0139134003215690024628034052699587                           0000024ST                 
DP0139134003215690024638034052699594                           0000024PC                 
DP0139134003215690024648034052699600                           0000024PC                 
DP0139134003215690024658034052699648                           0000024PC                 
DP0139134003215690024668034052699655                           0000072PC                 
DP0139134003215690024678034052699662                           0000024PC                 
DP0139134003215690024688034052699679                           0000060PC                 
DP0139134003215690024698034052699686                           0000036PC                 
DP0139134003215690024708034052699709                           0000006PC                 
DP0139134003215690024718034052699716                           0000012PC                 
DP0139134003215690024728034052699730                           0000012PC                 
DP0139134003215690024738034052699747                           0000012PC                 
DP0139134003215690024748034052699754                           0000012PC                 
DP0139134003215690024758034052699761                           0000006PC                 
DP0139134003215690024768034052699778                           0000012ST                 
DP0139134003215690024778034052699792                           0000002PC                 
DP0139134003215690024788034052699815                           0000012PC                 
DP0139134003215690024798034052699839                           0000012PC                 
DP0139134003215690024808034052699938                           0000024PC                 
DP0139134003215690024818034052699945                           0000012PC                 
DP0139134003215690024828034052699952                           0000012PC                 
DP0139134003215690024838034052699976                           0000024PC                 
DP0139134003215690024848034052699983                           0000012PC                 
DP0139134003215690024858034052699990                           0000012PC                 
OP01391340032157120181015N        1990        KASANOVA S.P.A.                                                       VIALE MONTEROSA, 91                                                   ARCORE                             20043    MIIT 1990        KASANOVA+ C.C. LE FONTANE                                             . 106 INCROCIO S.P. 116 VIALE EMILIA LOC. BARONE-FRASSO QUARTIERE LIDOCATANZARO LIDO                     88063    CZIT SEDEKLOG00743020968                                   ST                                           18/15394       20180925FERCAMFERCAM SPA                         E.R.   *                      137316 StefPepeVend. cliente                 NRBFM12+5                                                    0000000000000095CATANKAS                               -                               -                               -                               -
DP0139134003215710024868034052457873                           0000010PC                 
DP0139134003215710024878034052457897                           0000010PC                 
DP0139134003215710024898034052457927                           0000010PC                 
DP0139134003215710024908034052457934                           0000016ST                 
DP0139134003215710024928034052458252                           0000010PC                 
DP0139134003215710024938034052458443                           0000024PC                 
DP0139134003215710024948034052458450                           0000048PC                 
DP0139134003215710024958034052458467                           0000012PC                 
DP0139134003215710024968034052458474                           0000012PC                 
DP0139134003215710024978034052458481                           0000012PC                 
DP0139134003215710024988034052458498                           0000012PC                 
DP0139134003215710024998034052458504                           0000012PC                 
DP0139134003215710025008034052458511                           0000012PC                 
DP0139134003215710025018034052458528                           0000012PC                 
DP0139134003215710025028034052458535                           0000010PC                 
DP0139134003215710025038034052458542                           0000010PC                 
DP0139134003215710025048034052458566                           0000024PC                 
DP0139134003215710025058034052458634                           0000012PC                 
DP0139134003215710025068034052458641                           0000012PC                 
DP0139134003215710025078034052458658                           0000006PC                 
DP0139134003215710025088034052458665                           0000012PC                 
DP0139134003215710025098034052458672                           0000006PC                 
DP0139134003215710025108034052458689                           0000012PC                 
DP0139134003215710025118034052690157                           0000012PC                 
DP0139134003215710025128034052690171                           0000006PC                 
DP0139134003215710025138034052690256                           0000024PC                 
DP0139134003215710025148034052690270                           0000012PC                 
DP0139134003215710025158034052692649                           0000012PC                 
DP0139134003215710025178034052693011                           0000004PC                 
DP0139134003215710025188034052693035                           0000018PC                 
DP0139134003215710025198034052693059                           0000024PC                 
DP0139134003215710025208034052693080                           0000004PC                 
DP0139134003215710025218034052693103                           0000018PC                 
DP0139134003215710025228034052693127                           0000024PC                 
DP0139134003215710025238034052693141                           0000004PC                 
DP0139134003215710025248034052693158                           0000018PC                 
DP0139134003215710025258034052693165                           0000024PC                 
DP0139134003215710025268034052693189                           0000024PC                 
DP0139134003215710025278034052693288                           0000004PC                 
DP0139134003215710025288034052693301                           0000004PC                 
DP0139134003215710025298034052693325                           0000004PC                 
DP0139134003215710025308034052693349                           0000004PC                 
DP0139134003215710025318034052693356                           0000036PC                 
DP0139134003215710025338034052693394                           0000012PC                 
DP0139134003215710025388034052693448                           0000012PC                 
DP0139134003215710025398034052693462                           0000032PC                 
DP0139134003215710025408034052693479                           0000016PC                 
DP0139134003215710025418034052693486                           0000018PC                 
DP0139134003215710025428034052693509                           0000018PC                 
DP0139134003215710025438034052693516                           0000012PC                 
DP0139134003215710025448034052693523                           0000018PC                 
DP0139134003215710025458034052693561                           0000018PC                 
DP0139134003215710025468034052693592                           0000012PC                 
DP0139134003215710025478034052693608                           0000020ST                 
DP0139134003215710025488034052693691                           0000036ST                 
DP0139134003215710025498034052693721                           0000036PC                 
DP0139134003215710025508034052693745                           0000024PC                 
DP0139134003215710025518034052693776                           0000024PC                 
DP0139134003215710025548034052694469                           0000006PC                 
DP0139134003215710025558034052694605                           0000012PC                 
DP0139134003215710025568034052694612                           0000012PC                 
DP0139134003215710025608034052694674                           0000012PC                 
DP0139134003215710025628034052694933                           0000003PC                 
DP0139134003215710025638034052694957                           0000002PC                 
DP0139134003215710025648034052695237                           0000030PC                 
DP0139134003215710025658034052695312                           0000012PC                 
DP0139134003215710025668034052695336                           0000006PC                 
DP0139134003215710025678034052695350                           0000004PC                 
DP0139134003215710025688034052695374                           0000002PC                 
DP0139134003215710025698034052695404                           0000004PC                 
DP0139134003215710025708034052695428                           0000004PC                 
DP0139134003215710025718034052695435                           0000008PC                 
DP0139134003215710025738034052695596                           0000024ST                 
DP0139134003215710025748034052695619                           0000012ST                 
DP0139134003215710025758034052695718                           0000004PC                 
DP0139134003215710025768034052695725                           0000004PC                 
DP0139134003215710025778034052695732                           0000004PC                 
DP0139134003215710025808034052696173                           0000004ST                 
DP0139134003215710025888034052696463                           0000004PC                 
DP0139134003215710025898034052696487                           0000004PC                 
DP0139134003215710025908034052696500                           0000004PC                 
DP0139134003215710025918034052696524                           0000012PC                 
DP0139134003215710025928034052696548                           0000004PC                 
DP0139134003215710025938034052696562                           0000004PC                 
DP0139134003215710025948034052696586                           0000008PC                 
DP0139134003215710025958034052696609                           0000004PC                 
DP0139134003215710025968034052696623                           0000012PC                 
DP0139134003215710025978034052696647                           0000006PC                 
DP0139134003215710025988034052696654                           0000006PC                 
DP0139134003215710025998034052696739                           0000012PC                 
DP0139134003215710026268034052697835                           0000008PC                 
DP0139134003215710026278034052697842                           0000012PC                 
DP0139134003215710026288034052697866                           0000012PC                 
DP0139134003215710026338034052697965                           0000012PC                 
DP0139134003215710026378034052698085                           0000006PC                 
DP0139134003215710026468034052698498                           0000003PC                 
DP0139134003215710026478034052698511                           0000003PC                 
DP0139134003215710026488034052698559                           0000003PC                 
DP0139134003215710026568034052698986                           0000012PC                 
DP0139134003215710026578034052698993                           0000008PC                 
DP0139134003215710026588034052699013                           0000024PC                 
DP0139134003215710026598034052699037                           0000048PC                 
DP0139134003215710026618034052699099                           0000036ST                 
DP0139134003215710026628034052699136                           0000024PC                 
DP0139134003215710026638034052699150                           0000024PC                 
DP0139134003215710026648034052699587                           0000024ST                 
DP0139134003215710026658034052699594                           0000024PC                 
DP0139134003215710026668034052699600                           0000024PC                 
DP0139134003215710026678034052699648                           0000024PC                 
DP0139134003215710026688034052699655                           0000072PC                 
DP0139134003215710026698034052699662                           0000024PC                 
DP0139134003215710026708034052699679                           0000060PC                 
DP0139134003215710026718034052699686                           0000036PC                 
DP0139134003215710026728034052699709                           0000006PC                 
DP0139134003215710026738034052699716                           0000012PC                 
DP0139134003215710026748034052699730                           0000012PC                 
DP0139134003215710026758034052699747                           0000012PC                 
DP0139134003215710026768034052699754                           0000012PC                 
DP0139134003215710026778034052699761                           0000006PC                 
DP0139134003215710026788034052699778                           0000012ST                 
DP0139134003215710026798034052699792                           0000002PC                 
DP0139134003215710026808034052699815                           0000012PC                 
DP0139134003215710026818034052699839                           0000012PC                 
DP0139134003215710026828034052699938                           0000024PC                 
DP0139134003215710026838034052699945                           0000012PC                 
DP0139134003215710026848034052699952                           0000012PC                 
DP0139134003215710026858034052699976                           0000024PC                 
DP0139134003215710026868034052699983                           0000012PC                 
DP0139134003215710026878034052699990                           0000012PC                 
OP01391340032158220181015N        1990        KASANOVA S.P.A.                                                       VIALE MONTEROSA, 91                                                   ARCORE                             20043    MIIT 1990        (TOLEDO) KASANOVA +                                                   VIA TOLEDO,331/332/333                                                NAPOLI                             80134    NAIT SEDEKLOG00743020968                                   ST                                           18/15399       20180925FERCAMFERCAM SPA                         E.R.   *                      137316 StefPepeVend. cliente                 NRBFM12+5                                                    0000000000000095  TOLEDO                               -                               -                         CASERTA                            NA09
DP0139134003215820026888034052457873                           0000020PC                 
DP0139134003215820026898034052457897                           0000020PC                 
DP0139134003215820026918034052457927                           0000020PC                 
DP0139134003215820026928034052457934                           0000016ST                 
DP0139134003215820026948034052458252                           0000020PC                 
DP0139134003215820026958034052458443                           0000036PC                 
DP0139134003215820026968034052458450                           0000072PC                 
DP0139134003215820026978034052458467                           0000024PC                 
DP0139134003215820026988034052458474                           0000024PC                 
DP0139134003215820026998034052458481                           0000012PC                 
DP0139134003215820027008034052458498                           0000024PC                 
DP0139134003215820027018034052458504                           0000012PC                 
DP0139134003215820027028034052458511                           0000024PC                 
DP0139134003215820027038034052458528                           0000024PC                 
DP0139134003215820027048034052458535                           0000015PC                 
DP0139134003215820027058034052458542                           0000015PC                 
DP0139134003215820027068034052458559                           0000024ST                 
DP0139134003215820027078034052458566                           0000024PC                 
DP0139134003215820027088034052458634                           0000012PC                 
DP0139134003215820027098034052458641                           0000012PC                 
DP0139134003215820027108034052458658                           0000012PC                 
DP0139134003215820027118034052458665                           0000024PC                 
DP0139134003215820027128034052458672                           0000012PC                 
DP0139134003215820027138034052458689                           0000012PC                 
DP0139134003215820027148034052598316                           0000012PC                 
DP0139134003215820027158034052690157                           0000012PC                 
DP0139134003215820027168034052690171                           0000006PC                 
DP0139134003215820027178034052690256                           0000024PC                 
DP0139134003215820027188034052690270                           0000012PC                 
DP0139134003215820027198034052690652                           0000012PC                 
DP0139134003215820027208034052690676                           0000012PC                 
DP0139134003215820027218034052692649                           0000012PC                 
DP0139134003215820027248034052693011                           0000004PC                 
DP0139134003215820027258034052693035                           0000018PC                 
DP0139134003215820027268034052693059                           0000024PC                 
DP0139134003215820027278034052693080                           0000004PC                 
DP0139134003215820027288034052693103                           0000018PC                 
DP0139134003215820027298034052693127                           0000024PC                 
DP0139134003215820027308034052693141                           0000004PC                 
DP0139134003215820027318034052693158                           0000018PC                 
DP0139134003215820027328034052693165                           0000024PC                 
DP0139134003215820027338034052693189                           0000024PC                 
DP0139134003215820027348034052693219                           0000020PC                 
DP0139134003215820027358034052693288                           0000004PC                 
DP0139134003215820027368034052693301                           0000004PC                 
DP0139134003215820027378034052693325                           0000004PC                 
DP0139134003215820027388034052693349                           0000004PC                 
DP0139134003215820027398034052693356                           0000036PC                 
DP0139134003215820027418034052693394                           0000012PC                 
DP0139134003215820027468034052693448                           0000012PC                 
DP0139134003215820027478034052693455                           0000032PC                 
DP0139134003215820027488034052693462                           0000032PC                 
DP0139134003215820027498034052693479                           0000016PC                 
DP0139134003215820027508034052693486                           0000018PC                 
DP0139134003215820027518034052693493                           0000018PC                 
DP0139134003215820027528034052693509                           0000018PC                 
DP0139134003215820027538034052693516                           0000012PC                 
DP0139134003215820027548034052693523                           0000018PC                 
DP0139134003215820027558034052693547                           0000032PC                 
DP0139134003215820027568034052693561                           0000018PC                 
DP0139134003215820027578034052693585                           0000032PC                 
DP0139134003215820027588034052693592                           0000012PC                 
DP0139134003215820027598034052693608                           0000020ST                 
DP0139134003215820027608034052693691                           0000036ST                 
DP0139134003215820027618034052693721                           0000036PC                 
DP0139134003215820027628034052693745                           0000024PC                 
DP0139134003215820027638034052693776                           0000024PC                 
DP0139134003215820027648034052693790                           0000012PC                 
DP0139134003215820027678034052694469                           0000006PC                 
DP0139134003215820027688034052694605                           0000012PC                 
DP0139134003215820027698034052694612                           0000012PC                 
DP0139134003215820027738034052694674                           0000012PC                 
DP0139134003215820027748034052694681                           0000006PC                 
DP0139134003215820027768034052694933                           0000003PC                 
DP0139134003215820027778034052694957                           0000002PC                 
DP0139134003215820027788034052695084                           0000002PC                 
DP0139134003215820027798034052695183                           0000002PC                 
DP0139134003215820027808034052695190                           0000002PC                 
DP0139134003215820027848034052695237                           0000030PC                 
DP0139134003215820027858034052695312                           0000012PC                 
DP0139134003215820027868034052695336                           0000006PC                 
DP0139134003215820027878034052695350                           0000004PC                 
DP0139134003215820027888034052695374                           0000002PC                 
DP0139134003215820027898034052695381                           0000006PC                 
DP0139134003215820027908034052695398                           0000004PC                 
DP0139134003215820027918034052695404                           0000004PC                 
DP0139134003215820027928034052695428                           0000004PC                 
DP0139134003215820027938034052695435                           0000012PC                 
DP0139134003215820027948034052695459                           0000008PC                 
DP0139134003215820027968034052695596                           0000024ST                 
DP0139134003215820027978034052695602                           0000024ST                 
DP0139134003215820027988034052695619                           0000012ST                 
DP0139134003215820027998034052695671                           0000001PC                 
DP0139134003215820028008034052695688                           0000001PC                 
DP0139134003215820028018034052695695                           0000001PC                 
DP0139134003215820028028034052695701                           0000001PC                 
DP0139134003215820028038034052695718                           0000004PC                 
DP0139134003215820028048034052695725                           0000004PC                 
DP0139134003215820028058034052695732                           0000004PC                 
DP0139134003215820028068034052695756                           0000002PC                 
DP0139134003215820028078034052695770                           0000002PC                 
DP0139134003215820028118034052696159                           0000004ST                 
DP0139134003215820028128034052696173                           0000004ST                 
DP0139134003215820028138034052696197                           0000004ST                 
DP0139134003215820028148034052696210                           0000004ST                 
DP0139134003215820028278034052696463                           0000004PC                 
DP0139134003215820028288034052696487                           0000004PC                 
DP0139134003215820028298034052696500                           0000004PC                 
DP0139134003215820028308034052696524                           0000012PC                 
DP0139134003215820028318034052696548                           0000004PC                 
DP0139134003215820028328034052696562                           0000004PC                 
DP0139134003215820028338034052696586                           0000008PC                 
DP0139134003215820028348034052696609                           0000008PC                 
DP0139134003215820028358034052696623                           0000018PC                 
DP0139134003215820028368034052696630                           0000002PC                 
DP0139134003215820028378034052696647                           0000006PC                 
DP0139134003215820028388034052696654                           0000006PC                 
DP0139134003215820028398034052696678                           0000008PC                 
DP0139134003215820028408034052696692                           0000012PC                 
DP0139134003215820028418034052696715                           0000024PC                 
DP0139134003215820028428034052696739                           0000012PC                 
DP0139134003215820028438034052696753                           0000024PC                 
DP0139134003215820028448034052696760                           0000006PC                 
DP0139134003215820028758034052697774                           0000012PC                 
DP0139134003215820028778034052697835                           0000008PC                 
DP0139134003215820028788034052697842                           0000012PC                 
DP0139134003215820028798034052697866                           0000012PC                 
DP0139134003215820028858034052697958                           0000024PC                 
DP0139134003215820028868034052697965                           0000012PC                 
DP0139134003215820028918034052698085                           0000006PC                 
DP0139134003215820029008034052698498                           0000003PC                 
DP0139134003215820029018034052698511                           0000003PC                 
DP0139134003215820029028034052698528                           0000002PC                 
DP0139134003215820029038034052698535                           0000002PC                 
DP0139134003215820029048034052698559                           0000003PC                 
DP0139134003215820029138034052698801                           0000001PC                 
DP0139134003215820029158034052698986                           0000012PC                 
DP0139134003215820029168034052698993                           0000008PC                 
DP0139134003215820029178034052699006                           0000006PC                 
DP0139134003215820029188034052699013                           0000024PC                 
DP0139134003215820029198034052699037                           0000096PC                 
DP0139134003215820029218034052699099                           0000072ST                 
DP0139134003215820029228034052699136                           0000024PC                 
DP0139134003215820029238034052699150                           0000024PC                 
DP0139134003215820029248034052699587                           0000048ST                 
DP0139134003215820029258034052699594                           0000048PC                 
DP0139134003215820029268034052699600                           0000036PC                 
DP0139134003215820029278034052699648                           0000048PC                 
DP0139134003215820029288034052699655                           0000096PC                 
DP0139134003215820029298034052699662                           0000036PC                 
DP0139134003215820029308034052699679                           0000096PC                 
DP0139134003215820029318034052699686                           0000048PC                 
DP0139134003215820029328034052699709                           0000012PC                 
DP0139134003215820029338034052699716                           0000012PC                 
DP0139134003215820029348034052699723                           0000012PC                 
DP0139134003215820029358034052699730                           0000024PC                 
DP0139134003215820029368034052699747                           0000012PC                 
DP0139134003215820029378034052699754                           0000012PC                 
DP0139134003215820029388034052699761                           0000012PC                 
DP0139134003215820029398034052699778                           0000012ST                 
DP0139134003215820029408034052699785                           0000024PC                 
DP0139134003215820029418034052699792                           0000002PC                 
DP0139134003215820029428034052699808                           0000002PC                 
DP0139134003215820029438034052699815                           0000012PC                 
DP0139134003215820029448034052699822                           0000006PC                 
DP0139134003215820029458034052699839                           0000012PC                 
DP0139134003215820029468034052699846                           0000024PC                 
DP0139134003215820029498034052699938                           0000024PC                 
DP0139134003215820029508034052699945                           0000012PC                 
DP0139134003215820029518034052699952                           0000012PC                 
DP0139134003215820029528034052699969                           0000012PC                 
DP0139134003215820029538034052699976                           0000024PC                 
DP0139134003215820029548034052699983                           0000012PC                 
DP0139134003215820029558034052699990                           0000012PC                 
OP01391340032158420181015N        1990        KASANOVA S.P.A.                                                       VIALE MONTEROSA, 91                                                   ARCORE                             20043    MIIT 1990        (BOLOGNA3) KASANOVA+                                                  VIA UGO BASSI, 11/A SCARICO MERCE VIA MONTEGRAPPA 18                  BOLOGNA                            40121    BOIT SEDEKLOG00743020968                                   ST                                           18/15400       20180925ZUST  ZUST AMBROSETTI                    E.R.   *                      137316 StefPepeVend. cliente                 NRBFM12+5                                                    0000000000000095BOLOGNA3                               -                               -                         BOLOGNA                            BO13
DP0139134003215840029568034052457873                           0000020PC                 
DP0139134003215840029578034052457897                           0000020PC                 
DP0139134003215840029598034052457927                           0000020PC                 
DP0139134003215840029608034052457934                           0000016ST                 
DP0139134003215840029628034052458252                           0000020PC                 
DP0139134003215840029638034052458443                           0000036PC                 
DP0139134003215840029648034052458450                           0000072PC                 
DP0139134003215840029658034052458467                           0000024PC                 
DP0139134003215840029668034052458474                           0000024PC                 
DP0139134003215840029678034052458481                           0000012PC                 
DP0139134003215840029688034052458498                           0000024PC                 
DP0139134003215840029698034052458504                           0000012PC                 
DP0139134003215840029708034052458511                           0000024PC                 
DP0139134003215840029718034052458528                           0000024PC                 
DP0139134003215840029728034052458535                           0000015PC                 
DP0139134003215840029738034052458542                           0000015PC                 
DP0139134003215840029748034052458559                           0000024ST                 
DP0139134003215840029758034052458566                           0000024PC                 
DP0139134003215840029768034052458634                           0000012PC                 
DP0139134003215840029778034052458641                           0000012PC                 
DP0139134003215840029788034052458658                           0000012PC                 
DP0139134003215840029798034052458665                           0000024PC                 
DP0139134003215840029808034052458672                           0000012PC                 
DP0139134003215840029818034052458689                           0000012PC                 
DP0139134003215840029828034052598316                           0000012PC                 
DP0139134003215840029838034052690157                           0000012PC                 
DP0139134003215840029848034052690171                           0000006PC                 
DP0139134003215840029858034052690256                           0000024PC                 
DP0139134003215840029868034052690270                           0000012PC                 
DP0139134003215840029878034052690652                           0000012PC                 
DP0139134003215840029888034052690676                           0000012PC                 
DP0139134003215840029898034052692649                           0000012PC                 
DP0139134003215840029928034052693011                           0000004PC                 
DP0139134003215840029938034052693035                           0000018PC                 
DP0139134003215840029948034052693059                           0000024PC                 
DP0139134003215840029958034052693080                           0000004PC                 
DP0139134003215840029968034052693103                           0000018PC                 
DP0139134003215840029978034052693127                           0000024PC                 
DP0139134003215840029988034052693141                           0000004PC                 
DP0139134003215840029998034052693158                           0000018PC                 
DP0139134003215840030008034052693165                           0000024PC                 
DP0139134003215840030018034052693189                           0000024PC                 
DP0139134003215840030028034052693219                           0000020PC                 
DP0139134003215840030038034052693288                           0000004PC                 
DP0139134003215840030048034052693301                           0000004PC                 
DP0139134003215840030058034052693325                           0000004PC                 
DP0139134003215840030068034052693349                           0000004PC                 
DP0139134003215840030078034052693356                           0000036PC                 
DP0139134003215840030098034052693394                           0000012PC                 
DP0139134003215840030148034052693448                           0000012PC                 
DP0139134003215840030158034052693455                           0000032PC                 
DP0139134003215840030168034052693462                           0000032PC                 
DP0139134003215840030178034052693479                           0000016PC                 
DP0139134003215840030188034052693486                           0000018PC                 
DP0139134003215840030198034052693493                           0000018PC                 
DP0139134003215840030208034052693509                           0000018PC                 
DP0139134003215840030218034052693516                           0000012PC                 
DP0139134003215840030228034052693523                           0000018PC                 
DP0139134003215840030238034052693547                           0000032PC                 
DP0139134003215840030248034052693561                           0000018PC                 
DP0139134003215840030258034052693585                           0000032PC                 
DP0139134003215840030268034052693592                           0000012PC                 
DP0139134003215840030278034052693608                           0000020ST                 
DP0139134003215840030288034052693691                           0000036ST                 
DP0139134003215840030298034052693721                           0000036PC                 
DP0139134003215840030308034052693745                           0000024PC                 
DP0139134003215840030318034052693776                           0000024PC                 
DP0139134003215840030328034052693790                           0000012PC                 
DP0139134003215840030358034052694469                           0000006PC                 
DP0139134003215840030368034052694605                           0000012PC                 
DP0139134003215840030378034052694612                           0000012PC                 
DP0139134003215840030418034052694674                           0000012PC                 
DP0139134003215840030428034052694681                           0000006PC                 
DP0139134003215840030448034052694933                           0000003PC                 
DP0139134003215840030458034052694957                           0000002PC                 
DP0139134003215840030468034052695084                           0000002PC                 
DP0139134003215840030478034052695183                           0000002PC                 
DP0139134003215840030488034052695190                           0000002PC                 
DP0139134003215840030528034052695237                           0000030PC                 
DP0139134003215840030538034052695312                           0000012PC                 
DP0139134003215840030548034052695336                           0000006PC                 
DP0139134003215840030558034052695350                           0000004PC                 
DP0139134003215840030568034052695374                           0000002PC                 
DP0139134003215840030578034052695381                           0000006PC                 
DP0139134003215840030588034052695398                           0000004PC                 
DP0139134003215840030598034052695404                           0000004PC                 
DP0139134003215840030608034052695428                           0000004PC                 
DP0139134003215840030618034052695435                           0000012PC                 
DP0139134003215840030628034052695459                           0000008PC                 
DP0139134003215840030648034052695596                           0000024ST                 
DP0139134003215840030658034052695602                           0000024ST                 
DP0139134003215840030668034052695619                           0000012ST                 
DP0139134003215840030678034052695671                           0000001PC                 
DP0139134003215840030688034052695688                           0000001PC                 
DP0139134003215840030698034052695695                           0000001PC                 
DP0139134003215840030708034052695701                           0000001PC                 
DP0139134003215840030718034052695718                           0000004PC                 
DP0139134003215840030728034052695725                           0000004PC                 
DP0139134003215840030738034052695732                           0000004PC                 
DP0139134003215840030748034052695756                           0000002PC                 
DP0139134003215840030758034052695770                           0000002PC                 
DP0139134003215840030798034052696159                           0000004ST                 
DP0139134003215840030808034052696173                           0000004ST                 
DP0139134003215840030818034052696197                           0000004ST                 
DP0139134003215840030828034052696210                           0000004ST                 
DP0139134003215840030958034052696463                           0000004PC                 
DP0139134003215840030968034052696487                           0000004PC                 
DP0139134003215840030978034052696500                           0000004PC                 
DP0139134003215840030988034052696524                           0000012PC                 
DP0139134003215840030998034052696548                           0000004PC                 
DP0139134003215840031008034052696562                           0000004PC                 
DP0139134003215840031018034052696586                           0000008PC                 
DP0139134003215840031028034052696609                           0000008PC                 
DP0139134003215840031038034052696623                           0000018PC                 
DP0139134003215840031048034052696630                           0000002PC                 
DP0139134003215840031058034052696647                           0000006PC                 
DP0139134003215840031068034052696654                           0000006PC                 
DP0139134003215840031078034052696678                           0000008PC                 
DP0139134003215840031088034052696692                           0000012PC                 
DP0139134003215840031098034052696715                           0000024PC                 
DP0139134003215840031108034052696739                           0000012PC                 
DP0139134003215840031118034052696753                           0000024PC                 
DP0139134003215840031128034052696760                           0000006PC                 
DP0139134003215840031438034052697774                           0000012PC                 
DP0139134003215840031458034052697835                           0000008PC                 
DP0139134003215840031468034052697842                           0000012PC                 
DP0139134003215840031478034052697866                           0000012PC                 
DP0139134003215840031538034052697958                           0000024PC                 
DP0139134003215840031548034052697965                           0000012PC                 
DP0139134003215840031598034052698085                           0000006PC                 
DP0139134003215840031688034052698498                           0000003PC                 
DP0139134003215840031698034052698511                           0000003PC                 
DP0139134003215840031708034052698528                           0000002PC                 
DP0139134003215840031718034052698535                           0000002PC                 
DP0139134003215840031728034052698559                           0000003PC                 
DP0139134003215840031818034052698801                           0000001PC                 
DP0139134003215840031838034052698986                           0000012PC                 
DP0139134003215840031848034052698993                           0000008PC                 
DP0139134003215840031858034052699006                           0000006PC                 
DP0139134003215840031868034052699013                           0000024PC                 
DP0139134003215840031878034052699037                           0000096PC                 
DP0139134003215840031898034052699099                           0000072ST                 
DP0139134003215840031908034052699136                           0000024PC                 
DP0139134003215840031918034052699150                           0000024PC                 
DP0139134003215840031928034052699587                           0000048ST                 
DP0139134003215840031938034052699594                           0000048PC                 
DP0139134003215840031948034052699600                           0000036PC                 
DP0139134003215840031958034052699648                           0000048PC                 
DP0139134003215840031968034052699655                           0000096PC                 
DP0139134003215840031978034052699662                           0000036PC                 
DP0139134003215840031988034052699679                           0000096PC                 
DP0139134003215840031998034052699686                           0000048PC                 
DP0139134003215840032008034052699709                           0000012PC                 
DP0139134003215840032018034052699716                           0000012PC                 
DP0139134003215840032028034052699723                           0000012PC                 
DP0139134003215840032038034052699730                           0000024PC                 
DP0139134003215840032048034052699747                           0000012PC                 
DP0139134003215840032058034052699754                           0000012PC                 
DP0139134003215840032068034052699761                           0000012PC                 
DP0139134003215840032078034052699778                           0000012ST                 
DP0139134003215840032088034052699785                           0000024PC                 
DP0139134003215840032098034052699792                           0000002PC                 
DP0139134003215840032108034052699808                           0000002PC                 
DP0139134003215840032118034052699815                           0000012PC                 
DP0139134003215840032128034052699822                           0000006PC                 
DP0139134003215840032138034052699839                           0000012PC                 
DP0139134003215840032148034052699846                           0000024PC                 
DP0139134003215840032178034052699938                           0000024PC                 
DP0139134003215840032188034052699945                           0000012PC                 
DP0139134003215840032198034052699952                           0000012PC                 
DP0139134003215840032208034052699969                           0000012PC                 
DP0139134003215840032218034052699976                           0000024PC                 
DP0139134003215840032228034052699983                           0000012PC                 
DP0139134003215840032238034052699990                           0000012PC                 
OP01391340032158620181015N        1990        KASANOVA S.P.A.                                                       VIALE MONTEROSA, 91                                                   ARCORE                             20043    MIIT 1990        (SALERNO) KASANOVA +                                                  CORSO VITTORIO EMANUELE 214                                           SALERNO                            84122    SAIT SEDEKLOG00743020968                                   ST                                           18/15401       20180925FERCAMFERCAM SPA                         E.R.   *                      137316 StefPepeVend. cliente                 NRBFM12+5                                                    0000000000000095 SALERNO                               -                               -                          MO->SA                              SA
DP0139134003215860032248034052457873                           0000020PC                 
DP0139134003215860032258034052457897                           0000020PC                 
DP0139134003215860032278034052457927                           0000020PC                 
DP0139134003215860032288034052457934                           0000016ST                 
DP0139134003215860032308034052458252                           0000020PC                 
DP0139134003215860032318034052458443                           0000036PC                 
DP0139134003215860032328034052458450                           0000072PC                 
DP0139134003215860032338034052458467                           0000024PC                 
DP0139134003215860032348034052458474                           0000024PC                 
DP0139134003215860032358034052458481                           0000012PC                 
DP0139134003215860032368034052458498                           0000024PC                 
DP0139134003215860032378034052458504                           0000012PC                 
DP0139134003215860032388034052458511                           0000024PC                 
DP0139134003215860032398034052458528                           0000024PC                 
DP0139134003215860032408034052458535                           0000015PC                 
DP0139134003215860032418034052458542                           0000015PC                 
DP0139134003215860032428034052458559                           0000024ST                 
DP0139134003215860032438034052458566                           0000024PC                 
DP0139134003215860032448034052458634                           0000012PC                 
DP0139134003215860032458034052458641                           0000012PC                 
DP0139134003215860032468034052458658                           0000012PC                 
DP0139134003215860032478034052458665                           0000024PC                 
DP0139134003215860032488034052458672                           0000012PC                 
DP0139134003215860032498034052458689                           0000012PC                 
DP0139134003215860032508034052598316                           0000012PC                 
DP0139134003215860032518034052690157                           0000012PC                 
DP0139134003215860032528034052690171                           0000006PC                 
DP0139134003215860032538034052690256                           0000024PC                 
DP0139134003215860032548034052690270                           0000012PC                 
DP0139134003215860032558034052690652                           0000012PC                 
DP0139134003215860032568034052690676                           0000012PC                 
DP0139134003215860032578034052692649                           0000012PC                 
DP0139134003215860032608034052693011                           0000004PC                 
DP0139134003215860032618034052693035                           0000018PC                 
DP0139134003215860032628034052693059                           0000024PC                 
DP0139134003215860032638034052693073                           0000024PC                 
DP0139134003215860032648034052693080                           0000004PC                 
DP0139134003215860032658034052693103                           0000018PC                 
DP0139134003215860032668034052693127                           0000024PC                 
DP0139134003215860032678034052693141                           0000004PC                 
DP0139134003215860032688034052693158                           0000018PC                 
DP0139134003215860032698034052693165                           0000024PC                 
DP0139134003215860032708034052693189                           0000024PC                 
DP0139134003215860032718034052693219                           0000020PC                 
DP0139134003215860032728034052693288                           0000004PC                 
DP0139134003215860032738034052693301                           0000004PC                 
DP0139134003215860032748034052693325                           0000004PC                 
DP0139134003215860032758034052693349                           0000004PC                 
DP0139134003215860032768034052693356                           0000036PC                 
DP0139134003215860032788034052693394                           0000012PC                 
DP0139134003215860032838034052693448                           0000012PC                 
DP0139134003215860032848034052693455                           0000032PC                 
DP0139134003215860032858034052693462                           0000032PC                 
DP0139134003215860032868034052693479                           0000016PC                 
DP0139134003215860032878034052693486                           0000018PC                 
DP0139134003215860032888034052693493                           0000018PC                 
DP0139134003215860032898034052693509                           0000018PC                 
DP0139134003215860032908034052693516                           0000012PC                 
DP0139134003215860032918034052693523                           0000018PC                 
DP0139134003215860032928034052693547                           0000032PC                 
DP0139134003215860032938034052693561                           0000018PC                 
DP0139134003215860032948034052693585                           0000032PC                 
DP0139134003215860032958034052693592                           0000012PC                 
DP0139134003215860032968034052693608                           0000020ST                 
DP0139134003215860032978034052693691                           0000036ST                 
DP0139134003215860032988034052693721                           0000036PC                 
DP0139134003215860032998034052693745                           0000024PC                 
DP0139134003215860033008034052693776                           0000024PC                 
DP0139134003215860033018034052693790                           0000012PC                 
DP0139134003215860033048034052694469                           0000006PC                 
DP0139134003215860033058034052694605                           0000024PC                 
DP0139134003215860033068034052694612                           0000024PC                 
DP0139134003215860033108034052694674                           0000012PC                 
DP0139134003215860033118034052694681                           0000006PC                 
DP0139134003215860033138034052694933                           0000003PC                 
DP0139134003215860033148034052694957                           0000002PC                 
DP0139134003215860033158034052695084                           0000002PC                 
DP0139134003215860033168034052695091                           0000002PC                 
DP0139134003215860033178034052695183                           0000002PC                 
DP0139134003215860033188034052695190                           0000002PC                 
DP0139134003215860033228034052695237                           0000030PC                 
DP0139134003215860033238034052695312                           0000012PC                 
DP0139134003215860033248034052695336                           0000006PC                 
DP0139134003215860033258034052695350                           0000004PC                 
DP0139134003215860033268034052695374                           0000002PC                 
DP0139134003215860033278034052695381                           0000006PC                 
DP0139134003215860033288034052695398                           0000004PC                 
DP0139134003215860033298034052695404                           0000004PC                 
DP0139134003215860033308034052695428                           0000004PC                 
DP0139134003215860033318034052695435                           0000012PC                 
DP0139134003215860033328034052695459                           0000008PC                 
DP0139134003215860033348034052695596                           0000024ST                 
DP0139134003215860033358034052695602                           0000024ST                 
DP0139134003215860033368034052695619                           0000012ST                 
DP0139134003215860033378034052695671                           0000001PC                 
DP0139134003215860033388034052695688                           0000001PC                 
DP0139134003215860033398034052695695                           0000001PC                 
DP0139134003215860033408034052695701                           0000001PC                 
DP0139134003215860033418034052695718                           0000004PC                 
DP0139134003215860033428034052695725                           0000004PC                 
DP0139134003215860033438034052695732                           0000004PC                 
DP0139134003215860033448034052695756                           0000002PC                 
DP0139134003215860033458034052695770                           0000002PC                 
DP0139134003215860033498034052696159                           0000004ST                 
DP0139134003215860033508034052696173                           0000004ST                 
DP0139134003215860033518034052696197                           0000004ST                 
DP0139134003215860033528034052696210                           0000004ST                 
DP0139134003215860033658034052696463                           0000004PC                 
DP0139134003215860033668034052696487                           0000004PC                 
DP0139134003215860033678034052696500                           0000004PC                 
DP0139134003215860033688034052696524                           0000012PC                 
DP0139134003215860033698034052696548                           0000004PC                 
DP0139134003215860033708034052696562                           0000004PC                 
DP0139134003215860033718034052696586                           0000008PC                 
DP0139134003215860033728034052696609                           0000008PC                 
DP0139134003215860033738034052696623                           0000018PC                 
DP0139134003215860033748034052696630                           0000002PC                 
DP0139134003215860033758034052696647                           0000006PC                 
DP0139134003215860033768034052696654                           0000006PC                 
DP0139134003215860033778034052696678                           0000008PC                 
DP0139134003215860033788034052696692                           0000012PC                 
DP0139134003215860033798034052696715                           0000024PC                 
DP0139134003215860033808034052696739                           0000012PC                 
DP0139134003215860033818034052696753                           0000024PC                 
DP0139134003215860033828034052696760                           0000006PC                 
DP0139134003215860034148034052697774                           0000012PC                 
DP0139134003215860034168034052697835                           0000008PC                 
DP0139134003215860034178034052697842                           0000012PC                 
DP0139134003215860034188034052697866                           0000012PC                 
DP0139134003215860034248034052697958                           0000024PC                 
DP0139134003215860034258034052697965                           0000012PC                 
DP0139134003215860034308034052698085                           0000006PC                 
DP0139134003215860034398034052698498                           0000003PC                 
DP0139134003215860034408034052698511                           0000003PC                 
DP0139134003215860034418034052698528                           0000002PC                 
DP0139134003215860034428034052698535                           0000002PC                 
DP0139134003215860034438034052698559                           0000003PC                 
DP0139134003215860034528034052698801                           0000001PC                 
DP0139134003215860034548034052698986                           0000012PC                 
DP0139134003215860034558034052698993                           0000008PC                 
DP0139134003215860034568034052699006                           0000006PC                 
DP0139134003215860034578034052699013                           0000024PC                 
DP0139134003215860034588034052699037                           0000096PC                 
DP0139134003215860034608034052699099                           0000072ST                 
DP0139134003215860034618034052699136                           0000024PC                 
DP0139134003215860034628034052699150                           0000024PC                 
DP0139134003215860034638034052699587                           0000048ST                 
DP0139134003215860034648034052699594                           0000048PC                 
DP0139134003215860034658034052699600                           0000036PC                 
DP0139134003215860034668034052699648                           0000048PC                 
DP0139134003215860034678034052699655                           0000096PC                 
DP0139134003215860034688034052699662                           0000036PC                 
DP0139134003215860034698034052699679                           0000096PC                 
DP0139134003215860034708034052699686                           0000048PC                 
DP0139134003215860034718034052699709                           0000012PC                 
DP0139134003215860034728034052699716                           0000012PC                 
DP0139134003215860034738034052699723                           0000012PC                 
DP0139134003215860034748034052699730                           0000024PC                 
DP0139134003215860034758034052699747                           0000012PC                 
DP0139134003215860034768034052699754                           0000012PC                 
DP0139134003215860034778034052699761                           0000012PC                 
DP0139134003215860034788034052699778                           0000012ST                 
DP0139134003215860034798034052699785                           0000024PC                 
DP0139134003215860034808034052699792                           0000002PC                 
DP0139134003215860034818034052699808                           0000002PC                 
DP0139134003215860034828034052699815                           0000012PC                 
DP0139134003215860034838034052699822                           0000006PC                 
DP0139134003215860034848034052699839                           0000012PC                 
DP0139134003215860034858034052699846                           0000024PC                 
DP0139134003215860034888034052699938                           0000024PC                 
DP0139134003215860034898034052699945                           0000012PC                 
DP0139134003215860034908034052699952                           0000012PC                 
DP0139134003215860034918034052699969                           0000012PC                 
DP0139134003215860034928034052699976                           0000024PC                 
DP0139134003215860034938034052699983                           0000012PC                 
DP0139134003215860034948034052699990                           0000012PC                 
OP01391340032155320181015N        1990        KASANOVA S.P.A.                                                       VIALE MONTEROSA, 91                                                   ARCORE                             20043    MIIT 1990        (FIUMICI2) KASANOVA+ C/O PARCO COMMERCIALE MARKET CENTRAL DA VINCI    VIA GEMINIANO MONTANARI INGRESSO UNITA' VIA ANTONIO PACINOTTI 4       FIUMICINO                          00054    RMIT SEDEKLOG00743020968                                   ST                                           18/15385       20180925ZUST  ZUST AMBROSETTI                    E.R.   *                      137316 StefPepeVend. cliente                 NRBFM12+5                                                    0000000000000095FIUMICI2                               -                               -                            ROMA                            RM20
DP0139134003215530002728034052457873                           0000020PC                 
DP0139134003215530002738034052457897                           0000020PC                 
DP0139134003215530002758034052457927                           0000020PC                 
DP0139134003215530002768034052457934                           0000016ST                 
DP0139134003215530002788034052458252                           0000020PC                 
DP0139134003215530002798034052458443                           0000036PC                 
DP0139134003215530002808034052458450                           0000072PC                 
DP0139134003215530002818034052458467                           0000024PC                 
DP0139134003215530002828034052458474                           0000024PC                 
DP0139134003215530002838034052458481                           0000012PC                 
DP0139134003215530002848034052458498                           0000024PC                 
DP0139134003215530002858034052458504                           0000012PC                 
DP0139134003215530002868034052458511                           0000024PC                 
DP0139134003215530002878034052458528                           0000024PC                 
DP0139134003215530002888034052458535                           0000015PC                 
DP0139134003215530002898034052458542                           0000015PC                 
DP0139134003215530002908034052458559                           0000024ST                 
DP0139134003215530002918034052458566                           0000024PC                 
DP0139134003215530002928034052458634                           0000012PC                 
DP0139134003215530002938034052458641                           0000012PC                 
DP0139134003215530002948034052458658                           0000012PC                 
DP0139134003215530002958034052458665                           0000024PC                 
DP0139134003215530002968034052458672                           0000012PC                 
DP0139134003215530002978034052458689                           0000012PC                 
DP0139134003215530002988034052598316                           0000012PC                 
DP0139134003215530002998034052690157                           0000012PC                 
DP0139134003215530003008034052690171                           0000006PC                 
DP0139134003215530003018034052690256                           0000024PC                 
DP0139134003215530003028034052690270                           0000012PC                 
DP0139134003215530003038034052690652                           0000012PC                 
DP0139134003215530003048034052690676                           0000012PC                 
DP0139134003215530003058034052692649                           0000012PC                 
DP0139134003215530003088034052693011                           0000004PC                 
DP0139134003215530003098034052693035                           0000018PC                 
DP0139134003215530003108034052693059                           0000024PC                 
DP0139134003215530003118034052693080                           0000004PC                 
DP0139134003215530003128034052693103                           0000018PC                 
DP0139134003215530003138034052693127                           0000024PC                 
DP0139134003215530003148034052693141                           0000004PC                 
DP0139134003215530003158034052693158                           0000018PC                 
DP0139134003215530003168034052693165                           0000024PC                 
DP0139134003215530003178034052693189                           0000024PC                 
DP0139134003215530003188034052693219                           0000020PC                 
DP0139134003215530003198034052693288                           0000004PC                 
DP0139134003215530003208034052693301                           0000004PC                 
DP0139134003215530003218034052693325                           0000004PC                 
DP0139134003215530003228034052693349                           0000004PC                 
DP0139134003215530003238034052693356                           0000036PC                 
DP0139134003215530003258034052693394                           0000012PC                 
DP0139134003215530003308034052693448                           0000012PC                 
DP0139134003215530003318034052693455                           0000032PC                 
DP0139134003215530003328034052693462                           0000032PC                 
DP0139134003215530003338034052693479                           0000016PC                 
DP0139134003215530003348034052693486                           0000018PC                 
DP0139134003215530003358034052693493                           0000018PC                 
DP0139134003215530003368034052693509                           0000018PC                 
DP0139134003215530003378034052693516                           0000012PC                 
DP0139134003215530003388034052693523                           0000018PC                 
DP0139134003215530003398034052693547                           0000032PC                 
DP0139134003215530003408034052693561                           0000018PC                 
DP0139134003215530003418034052693585                           0000032PC                 
DP0139134003215530003428034052693592                           0000012PC                 
DP0139134003215530003438034052693608                           0000020ST                 
DP0139134003215530003448034052693691                           0000036ST                 
DP0139134003215530003458034052693721                           0000036PC                 
DP0139134003215530003468034052693745                           0000024PC                 
DP0139134003215530003478034052693776                           0000024PC                 
DP0139134003215530003488034052693790                           0000012PC                 
DP0139134003215530003518034052694469                           0000006PC                 
DP0139134003215530003528034052694605                           0000012PC                 
DP0139134003215530003538034052694612                           0000012PC                 
DP0139134003215530003578034052694674                           0000012PC                 
DP0139134003215530003588034052694681                           0000006PC                 
DP0139134003215530003608034052694933                           0000003PC                 
DP0139134003215530003618034052694957                           0000002PC                 
DP0139134003215530003628034052695084                           0000002PC                 
DP0139134003215530003638034052695183                           0000002PC                 
DP0139134003215530003648034052695190                           0000002PC                 
DP0139134003215530003688034052695237                           0000030PC                 
DP0139134003215530003698034052695312                           0000012PC                 
DP0139134003215530003708034052695336                           0000006PC                 
DP0139134003215530003718034052695350                           0000004PC                 
DP0139134003215530003728034052695374                           0000002PC                 
DP0139134003215530003738034052695381                           0000006PC                 
DP0139134003215530003748034052695398                           0000004PC                 
DP0139134003215530003758034052695404                           0000004PC                 
