OP01456800034348320190214N        1858        MERCURY S.R.L.                                                        VIA SEMINELLA,50N/1-2                                                 BUSALLA                            16012    GEIT 1858        MERCURY S.R.L.                                                        VIA SEMINELLA,50N/1-2                                                 BUSALLA                            16012    GEIT SEDEKLOG01315690998                                   ST                                           19/04310       20190214ND                                       *                             010/7261937    Mov.tra depositi              NRD                                                          0000000000000099                                  GENOVA                            GE02                          GENOVA                            GE02
DP0145680003434830000018034052664561                           0000012PC                 
DP0145680003434830000028034052583695                           0000040PC                 
DP0145680003434830000038034052596411                           0000048PC                 
DP0145680003434830000048034052379915                           0000036PC                 
DP0145680003434830000058034052572224                           0000036PC                 
DP0145680003434830000068034052484459                           0000048PC                 
