OP01389540032207620181015N        1990        KASANOVA S.P.A.                                                       VIALE MONTEROSA, 91                                                   ARCORE                             20043    MIIT 1990        (SS GIOV2) CO. IMPORT C/O C.C. SARCA                                  VIA MILANESE, 10 ANG. VIALE SARCA                                     SESTO SAN GIOVANNI                 20099    MIIT SEDEKLOG00743020968                                   ST                                           18/15640       20180927ZUST  ZUST AMBROSETTI                    *                             137316 StefPepeVend. cliente                 NRBFM12+5                                                    0000000000000094SS GIOV2                               -                               -                          MILANO                            MI24
DP0138954003220760033218034052393553                           0000012PC                 
DP0138954003220760033228034052393560                           0000012PC                 
DP0138954003220760033238034052393713                           0000012PC                 
DP0138954003220760033248034052372305                           0000012PC                 
DP0138954003220760033278034052393690                           0000012PC                 
DP0138954003220760033288034052393737                           0000012PC                 
DP0138954003220760033298034052397995                           0000020ST                 
DP0138954003220760033328034052290548                           0000024PC                 
DP0138954003220760033338034052488198                           0000012PC                 
DP0138954003220760033348034052488211                           0000032PC                 
DP0138954003220760033358034052488242                           0000018PC                 
DP0138954003220760033368034052488303                           0000018PC                 
DP0138954003220760033378034052498623                           0000024PC                 
DP0138954003220760033388034052498654                           0000048PC                 
DP0138954003220760033398034052498678                           0000012PC                 
DP0138954003220760033408034052498692                           0000012PC                 
DP0138954003220760033418034052498715                           0000006PC                 
DP0138954003220760033428034052498739                           0000012PC                 
DP0138954003220760033438034052498753                           0000006PC                 
DP0138954003220760033448034052498777                           0000012PC                 
DP0138954003220760033458034052498838                           0000024PC                 
DP0138954003220760033478034052498890                           0000010PC                 
DP0138954003220760033488034052498951                           0000012PC                 
DP0138954003220760033498034052498968                           0000012PC                 
DP0138954003220760033508034052498975                           0000012PC                 
DP0138954003220760033518034052498982                           0000012PC                 
DP0138954003220760033528034052498999                           0000012PC                 
DP0138954003220760033538034052499002                           0000012PC                 
DP0138954003220760033548034052499019                           0000012PC                 
DP0138954003220760033558034052499156                           0000010PC                 
DP0138954003220760033568034052499163                           0000010PC                 
DP0138954003220760033578034052499200                           0000010PC                 
DP0138954003220760033588034052499217                           0000010PC                 
DP0138954003220760033598034052499224                           0000016ST                 
DP0138954003220760033608034052372343                           0000024PC                 
DP0138954003220760033618034052561013                           0000004PC                 
DP0138954003220760033628034052564083                           0000012PC                 
DP0138954003220760033658034052581783                           0000072PC                 
DP0138954003220760033668034052581790                           0000024PC                 
DP0138954003220760033678034052581813                           0000060PC                 
DP0138954003220760033698034052586566                           0000024PC                 
DP0138954003220760033708034052590709                           0000024PC                 
DP0138954003220760033718034052590730                           0000024PC                 
DP0138954003220760033728034052590747                           0000024PC                 
DP0138954003220760033758034052393638                           0000006PC                 
DP0138954003220760033768034052457880                           0000010PC                 
DP0138954003220760033788034052477543                           0000004PC                 
DP0138954003220760033798034052477604                           0000012PC                 
DP0138954003220760033808034052488235                           0000016PC                 
DP0138954003220760033818034052493536                           0000006PC                 
DP0138954003220760033828034052493550                           0000012ST                 
DP0138954003220760033838034052561020                           0000004PC                 
DP0138954003220760033848034052561044                           0000008PC                 
DP0138954003220760033858034052561631                           0000012PC                 
DP0138954003220760033868034052561679                           0000012PC                 
DP0138954003220760033878034052561792                           0000024PC                 
DP0138954003220760033888034052561839                           0000012PC                 
DP0138954003220760033898034052561921                           0000012PC                 
DP0138954003220760033908034052562584                           0000006PC                 
DP0138954003220760033918034052562614                           0000004PC                 
DP0138954003220760034028034052573849                           0000012PC                 
DP0138954003220760034038034052573870                           0000018PC                 
DP0138954003220760034048034052573900                           0000018PC                 
DP0138954003220760034058034052573993                           0000012PC                 
DP0138954003220760034078034052575591                           0000012PC                 
DP0138954003220760034088034052576901                           0000006PC                 
DP0138954003220760034318034052581158                           0000006PC                 
DP0138954003220760034328034052581189                           0000006PC                 
DP0138954003220760034338034052581424                           0000012PC                 
DP0138954003220760034348034052581837                           0000036PC                 
DP0138954003220760034358034052582346                           0000006PC                 
DP0138954003220760034368034052582636                           0000018PC                 
DP0138954003220760034378034052583008                           0000024PC                 
DP0138954003220760034398034052583039                           0000036ST                 
DP0138954003220760034418034052583091                           0000024PC                 
DP0138954003220760034428034052590556                           0000012PC                 
DP0138954003220760034448034052592345                           0000012PC                 
DP0138954003220760034468034052596053                           0000004PC                 
DP0138954003220760034478034052596077                           0000004PC                 
DP0138954003220760034488034052596084                           0000004PC                 
DP0138954003220760034498034052596176                           0000012PC                 
DP0138954003220760034508034052596190                           0000012PC                 
DP0138954003220760034518034052598224                           0000004PC                 
DP0138954003220760034528034052598262                           0000006PC                 
DP0138954003220760034538034052598286                           0000006PC                 
DP0138954003220760034548034052598323                           0000004PC                 
DP0138954003220760034558034052598330                           0000006PC                 
DP0138954003220760034568034052598521                           0000006PC                 
DP0138954003220760034588034052662482                           0000036PC                 
DP0138954003220760034618034052665582                           0000012PC                 
DP0138954003220760034628034052665599                           0000008PC                 
DP0138954003220760034638034052690140                           0000012PC                 
DP0138954003220760034648034052690164                           0000006PC                 
DP0138954003220760034658034052690249                           0000024PC                 
DP0138954003220760034668034052690263                           0000012PC                 
DP0138954003220760034678034052692632                           0000012PC                 
DP0138954003220760034688034052693271                           0000004PC                 
DP0138954003220760034698034052693295                           0000004PC                 
DP0138954003220760034708034052693318                           0000004PC                 
DP0138954003220760034718034052693332                           0000004PC                 
DP0138954003220760034728034052693684                           0000036ST                 
DP0138954003220760034738034052693714                           0000036PC                 
DP0138954003220760034748034052693738                           0000024PC                 
DP0138954003220760034758034052693769                           0000024PC                 
DP0138954003220760034768034052695329                           0000006PC                 
DP0138954003220760034778034052695343                           0000004PC                 
DP0138954003220760034788034052695367                           0000002PC                 
DP0138954003220760034848034052697859                           0000012PC                 
DP0138954003220760034868034052698078                           0000006PC                 
OP01389540032207820181015N        1990        KASANOVA S.P.A.                                                       VIALE MONTEROSA, 91                                                   ARCORE                             20043    MIIT 1990        (ROMA-MAG) CO.IMPORT C/O C.C. LEONARDO CARREFOUR                      VIALE BRAMANTE SNC                                                    ROMA FIUMICINO                     00054    RMIT SEDEKLOG00743020968                                   ST                                           18/15641       20180927ZUST  ZUST AMBROSETTI                    S.R.                          137316 StefPepeVend. cliente                 NRBFM12+5                                                    0000000000000094ROMA-MAG                               -                               -                                                                
DP0138954003220780034978034052393553                           0000012PC                 
DP0138954003220780034988034052393560                           0000012PC                 
DP0138954003220780034998034052393683                           0000012PC                 
DP0138954003220780035008034052393713                           0000012PC                 
DP0138954003220780035018034052372305                           0000012PC                 
DP0138954003220780035048034052393690                           0000024PC                 
DP0138954003220780035058034052393737                           0000012PC                 
DP0138954003220780035068034052397995                           0000020ST                 
DP0138954003220780035108034052290548                           0000048PC                 
DP0138954003220780035118034052488198                           0000012PC                 
DP0138954003220780035128034052488204                           0000032PC                 
DP0138954003220780035138034052488211                           0000032PC                 
DP0138954003220780035148034052488242                           0000018PC                 
DP0138954003220780035158034052488303                           0000018PC                 
DP0138954003220780035178034052498623                           0000036PC                 
DP0138954003220780035188034052498654                           0000072PC                 
DP0138954003220780035198034052498678                           0000012PC                 
DP0138954003220780035208034052498692                           0000012PC                 
DP0138954003220780035218034052498715                           0000012PC                 
DP0138954003220780035228034052498739                           0000024PC                 
DP0138954003220780035238034052498753                           0000012PC                 
DP0138954003220780035248034052498777                           0000012PC                 
DP0138954003220780035258034052498807                           0000024ST                 
DP0138954003220780035268034052498838                           0000024PC                 
DP0138954003220780035288034052498890                           0000020PC                 
DP0138954003220780035298034052498951                           0000024PC                 
DP0138954003220780035308034052498968                           0000024PC                 
DP0138954003220780035318034052498975                           0000012PC                 
DP0138954003220780035328034052498982                           0000024PC                 
DP0138954003220780035338034052498999                           0000012PC                 
DP0138954003220780035348034052499002                           0000024PC                 
DP0138954003220780035358034052499019                           0000024PC                 
DP0138954003220780035368034052499156                           0000015PC                 
DP0138954003220780035378034052499163                           0000015PC                 
DP0138954003220780035388034052499200                           0000020PC                 
DP0138954003220780035398034052499217                           0000020PC                 
DP0138954003220780035408034052499224                           0000016ST                 
DP0138954003220780035418034052372343                           0000024PC                 
DP0138954003220780035428034052560986                           0000006PC                 
DP0138954003220780035448034052561013                           0000004PC                 
DP0138954003220780035468034052564083                           0000012PC                 
DP0138954003220780035478034052564090                           0000024PC                 
DP0138954003220780035508034052581431                           0000024PC                 
DP0138954003220780035518034052581783                           0000096PC                 
DP0138954003220780035528034052581790                           0000036PC                 
DP0138954003220780035538034052581813                           0000096PC                 
DP0138954003220780035558034052586566                           0000024PC                 
DP0138954003220780035568034052590709                           0000048PC                 
DP0138954003220780035578034052590730                           0000048PC                 
DP0138954003220780035588034052590747                           0000036PC                 
DP0138954003220780035618034052393638                           0000012PC                 
DP0138954003220780035628034052399586                           0000024PC                 
DP0138954003220780035638034052457880                           0000020PC                 
DP0138954003220780035658034052477543                           0000008PC                 
DP0138954003220780035668034052477604                           0000018PC                 
DP0138954003220780035678034052488235                           0000016PC                 
DP0138954003220780035688034052488259                           0000018PC                 
DP0138954003220780035698034052493536                           0000012PC                 
DP0138954003220780035708034052493550                           0000012ST                 
DP0138954003220780035718034052561020                           0000004PC                 
DP0138954003220780035728034052561044                           0000012PC                 
DP0138954003220780035738034052561631                           0000012PC                 
DP0138954003220780035748034052561679                           0000012PC                 
DP0138954003220780035758034052561716                           0000012PC                 
DP0138954003220780035768034052561792                           0000024PC                 
DP0138954003220780035778034052561839                           0000012PC                 
DP0138954003220780035788034052561921                           0000012PC                 
DP0138954003220780035798034052562584                           0000006PC                 
DP0138954003220780035808034052562614                           0000004PC                 
DP0138954003220780035908034052572705                           0000008PC                 
DP0138954003220780035918034052572729                           0000012PC                 
DP0138954003220780035948034052573849                           0000012PC                 
DP0138954003220780035958034052573870                           0000018PC                 
DP0138954003220780035968034052573894                           0000032PC                 
DP0138954003220780035978034052573900                           0000018PC                 
DP0138954003220780035988034052573924                           0000032PC                 
DP0138954003220780035998034052573993                           0000012PC                 
DP0138954003220780036018034052575591                           0000012PC                 
DP0138954003220780036028034052576901                           0000006PC                 
DP0138954003220780036328034052580908                           0000002PC                 
DP0138954003220780036338034052581158                           0000006PC                 
DP0138954003220780036348034052581189                           0000006PC                 
DP0138954003220780036358034052581387                           0000008PC                 
DP0138954003220780036378034052581400                           0000024PC                 
DP0138954003220780036388034052581424                           0000012PC                 
DP0138954003220780036398034052581448                           0000024PC                 
DP0138954003220780036408034052581837                           0000048PC                 
DP0138954003220780036418034052582346                           0000006PC                 
DP0138954003220780036428034052582636                           0000018PC                 
DP0138954003220780036438034052583008                           0000024PC                 
DP0138954003220780036458034052583039                           0000072ST                 
DP0138954003220780036478034052583091                           0000024PC                 
DP0138954003220780036498034052586719                           0000001PC                 
DP0138954003220780036508034052589253                           0000001PC                 
DP0138954003220780036518034052589291                           0000001PC                 
DP0138954003220780036528034052590556                           0000012PC                 
DP0138954003220780036548034052592345                           0000012PC                 
DP0138954003220780036568034052596015                           0000001PC                 
DP0138954003220780036578034052596022                           0000001PC                 
DP0138954003220780036588034052596039                           0000001PC                 
DP0138954003220780036598034052596046                           0000001PC                 
DP0138954003220780036608034052596053                           0000004PC                 
DP0138954003220780036618034052596077                           0000004PC                 
DP0138954003220780036628034052596084                           0000004PC                 
DP0138954003220780036638034052596169                           0000012PC                 
DP0138954003220780036648034052596176                           0000012PC                 
DP0138954003220780036658034052596190                           0000012PC                 
DP0138954003220780036668034052598224                           0000004PC                 
DP0138954003220780036678034052598231                           0000006PC                 
DP0138954003220780036688034052598262                           0000006PC                 
DP0138954003220780036698034052598279                           0000008PC                 
DP0138954003220780036708034052598286                           0000006PC                 
DP0138954003220780036718034052598323                           0000004PC                 
DP0138954003220780036728034052598330                           0000006PC                 
DP0138954003220780036738034052598521                           0000006PC                 
DP0138954003220780036758034052662482                           0000036PC                 
DP0138954003220780036848034052665582                           0000012PC                 
DP0138954003220780036858034052665599                           0000008PC                 
DP0138954003220780036878034052690140                           0000012PC                 
DP0138954003220780036888034052690164                           0000006PC                 
DP0138954003220780036898034052690249                           0000024PC                 
DP0138954003220780036908034052690263                           0000012PC                 
DP0138954003220780036918034052692632                           0000012PC                 
DP0138954003220780036928034052693271                           0000004PC                 
DP0138954003220780036938034052693295                           0000004PC                 
DP0138954003220780036948034052693318                           0000004PC                 
DP0138954003220780036958034052693332                           0000004PC                 
DP0138954003220780036968034052693684                           0000036ST                 
DP0138954003220780036988034052693738                           0000024PC                 
DP0138954003220780036998034052693769                           0000024PC                 
DP0138954003220780037008034052693783                           0000012PC                 
DP0138954003220780037018034052695077                           0000002PC                 
DP0138954003220780037028034052695329                           0000006PC                 
DP0138954003220780037038034052695343                           0000004PC                 
DP0138954003220780037048034052695367                           0000002PC                 
DP0138954003220780037058034052695442                           0000008PC                 
DP0138954003220780037068034052695749                           0000002PC                 
DP0138954003220780037078034052695763                           0000002PC                 
DP0138954003220780037088034052696180                           0000004ST                 
DP0138954003220780037098034052696203                           0000004ST                 
DP0138954003220780037178034052697859                           0000012PC                 
DP0138954003220780037208034052698078                           0000006PC                 
OP01389540032208020181015N        1990        KASANOVA S.P.A.                                                       VIALE MONTEROSA, 91                                                   ARCORE                             20043    MIIT 1990        (RHO) CO.IMPORT C/O C.C. RHO CENTER                                   VIA L. CAPUANA ANGOLO C.SO EUROPA                                     RHO                                20017    MIIT SEDEKLOG00743020968                                   ST                                           18/15642       20180927ZUST  ZUST AMBROSETTI                    *                             137316 StefPepeVend. cliente                 NRBFM12+5                                                    0000000000000094     RHO                               -                               -                          MILANO                            MI10
DP0138954003220800037348034052393553                           0000012PC                 
DP0138954003220800037358034052393560                           0000012PC                 
DP0138954003220800037368034052393713                           0000012PC                 
DP0138954003220800037378034052372305                           0000012PC                 
DP0138954003220800037408034052393690                           0000012PC                 
DP0138954003220800037418034052393737                           0000012PC                 
DP0138954003220800037428034052397995                           0000020ST                 
DP0138954003220800037458034052290548                           0000024PC                 
DP0138954003220800037468034052488198                           0000012PC                 
DP0138954003220800037478034052488211                           0000032PC                 
DP0138954003220800037488034052488242                           0000018PC                 
DP0138954003220800037498034052488303                           0000018PC                 
DP0138954003220800037508034052498623                           0000024PC                 
DP0138954003220800037518034052498654                           0000048PC                 
DP0138954003220800037528034052498678                           0000012PC                 
DP0138954003220800037538034052498692                           0000012PC                 
DP0138954003220800037548034052498715                           0000006PC                 
DP0138954003220800037558034052498739                           0000012PC                 
DP0138954003220800037568034052498753                           0000006PC                 
DP0138954003220800037578034052498777                           0000012PC                 
DP0138954003220800037588034052498838                           0000024PC                 
DP0138954003220800037608034052498890                           0000010PC                 
DP0138954003220800037618034052498951                           0000012PC                 
DP0138954003220800037628034052498968                           0000012PC                 
DP0138954003220800037638034052498975                           0000012PC                 
DP0138954003220800037648034052498982                           0000012PC                 
DP0138954003220800037658034052498999                           0000012PC                 
DP0138954003220800037668034052499002                           0000012PC                 
DP0138954003220800037678034052499019                           0000012PC                 
DP0138954003220800037688034052499156                           0000010PC                 
DP0138954003220800037698034052499163                           0000010PC                 
DP0138954003220800037708034052499200                           0000010PC                 
DP0138954003220800037718034052499217                           0000010PC                 
DP0138954003220800037728034052499224                           0000016ST                 
DP0138954003220800037738034052372343                           0000024PC                 
DP0138954003220800037748034052561013                           0000004PC                 
DP0138954003220800037758034052564083                           0000012PC                 
DP0138954003220800037788034052581783                           0000072PC                 
DP0138954003220800037798034052581790                           0000024PC                 
DP0138954003220800037808034052581813                           0000060PC                 
DP0138954003220800037828034052586566                           0000024PC                 
DP0138954003220800037838034052590709                           0000024PC                 
DP0138954003220800037848034052590730                           0000024PC                 
DP0138954003220800037858034052590747                           0000024PC                 
DP0138954003220800037888034052393638                           0000006PC                 
DP0138954003220800037898034052457880                           0000010PC                 
DP0138954003220800037918034052477543                           0000004PC                 
DP0138954003220800037928034052477604                           0000012PC                 
DP0138954003220800037938034052488235                           0000016PC                 
DP0138954003220800037948034052493536                           0000006PC                 
DP0138954003220800037958034052493550                           0000012ST                 
DP0138954003220800037968034052561020                           0000004PC                 
DP0138954003220800037978034052561044                           0000008PC                 
DP0138954003220800037988034052561631                           0000012PC                 
DP0138954003220800037998034052561679                           0000012PC                 
DP0138954003220800038008034052561792                           0000024PC                 
DP0138954003220800038018034052561839                           0000012PC                 
DP0138954003220800038028034052561921                           0000012PC                 
DP0138954003220800038038034052562584                           0000006PC                 
DP0138954003220800038048034052562614                           0000004PC                 
DP0138954003220800038158034052573849                           0000012PC                 
DP0138954003220800038168034052573870                           0000018PC                 
DP0138954003220800038178034052573900                           0000018PC                 
DP0138954003220800038188034052573993                           0000012PC                 
DP0138954003220800038208034052575591                           0000012PC                 
DP0138954003220800038218034052576901                           0000006PC                 
DP0138954003220800038448034052581158                           0000006PC                 
DP0138954003220800038458034052581189                           0000006PC                 
DP0138954003220800038468034052581424                           0000012PC                 
DP0138954003220800038478034052581837                           0000036PC                 
DP0138954003220800038488034052582346                           0000006PC                 
DP0138954003220800038498034052582636                           0000018PC                 
DP0138954003220800038508034052583008                           0000024PC                 
DP0138954003220800038528034052583039                           0000036ST                 
DP0138954003220800038548034052583091                           0000024PC                 
DP0138954003220800038558034052590556                           0000012PC                 
DP0138954003220800038578034052592345                           0000012PC                 
DP0138954003220800038598034052596053                           0000004PC                 
DP0138954003220800038608034052596077                           0000004PC                 
DP0138954003220800038618034052596084                           0000004PC                 
DP0138954003220800038628034052596176                           0000012PC                 
DP0138954003220800038638034052596190                           0000012PC                 
DP0138954003220800038648034052598224                           0000004PC                 
DP0138954003220800038658034052598262                           0000006PC                 
DP0138954003220800038668034052598286                           0000006PC                 
DP0138954003220800038678034052598323                           0000004PC                 
DP0138954003220800038688034052598330                           0000006PC                 
DP0138954003220800038698034052598521                           0000006PC                 
DP0138954003220800038718034052662482                           0000036PC                 
DP0138954003220800038748034052665582                           0000012PC                 
DP0138954003220800038758034052665599                           0000008PC                 
DP0138954003220800038768034052690140                           0000012PC                 
DP0138954003220800038778034052690164                           0000006PC                 
DP0138954003220800038788034052690249                           0000024PC                 
DP0138954003220800038798034052690263                           0000012PC                 
DP0138954003220800038808034052692632                           0000012PC                 
DP0138954003220800038818034052693271                           0000004PC                 
DP0138954003220800038828034052693295                           0000004PC                 
DP0138954003220800038838034052693318                           0000004PC                 
DP0138954003220800038848034052693332                           0000004PC                 
DP0138954003220800038858034052693684                           0000036ST                 
DP0138954003220800038878034052693738                           0000024PC                 
DP0138954003220800038888034052693769                           0000024PC                 
DP0138954003220800038898034052695329                           0000006PC                 
DP0138954003220800038908034052695343                           0000004PC                 
DP0138954003220800038918034052695367                           0000002PC                 
DP0138954003220800038978034052697859                           0000012PC                 
DP0138954003220800038998034052698078                           0000006PC                 
OP01389540032208220181015N        1990        KASANOVA S.P.A.                                                       VIALE MONTEROSA, 91                                                   ARCORE                             20043    MIIT 1990        (PARM-MAG) CO.IMPORT C/O C.C. PARMA RETAIL\                           STRADA PROVINCIALE BURLA, 72                                          PARMA                              43122    PRIT SEDEKLOG00743020968                                   ST                                           18/15643       20180927ZUST  ZUST AMBROSETTI                    S.R.                          137316 StefPepeVend. cliente                 NRBFM12+5                                                    0000000000000094PARM-MAG                               -                               -                           PARMA                            PR35
DP0138954003220820039108034052393553                           0000012PC                 
DP0138954003220820039118034052393560                           0000012PC                 
DP0138954003220820039128034052393683                           0000012PC                 
DP0138954003220820039138034052393713                           0000012PC                 
DP0138954003220820039148034052372305                           0000012PC                 
DP0138954003220820039178034052393690                           0000024PC                 
DP0138954003220820039188034052393737                           0000012PC                 
DP0138954003220820039198034052397995                           0000020ST                 
DP0138954003220820039238034052290548                           0000048PC                 
DP0138954003220820039248034052488198                           0000012PC                 
DP0138954003220820039258034052488204                           0000032PC                 
DP0138954003220820039268034052488211                           0000032PC                 
DP0138954003220820039278034052488242                           0000018PC                 
DP0138954003220820039288034052488303                           0000018PC                 
DP0138954003220820039308034052498623                           0000036PC                 
DP0138954003220820039318034052498654                           0000072PC                 
DP0138954003220820039328034052498678                           0000012PC                 
DP0138954003220820039338034052498692                           0000012PC                 
DP0138954003220820039348034052498715                           0000012PC                 
DP0138954003220820039358034052498739                           0000024PC                 
DP0138954003220820039368034052498753                           0000012PC                 
DP0138954003220820039378034052498777                           0000012PC                 
DP0138954003220820039388034052498807                           0000024ST                 
DP0138954003220820039398034052498838                           0000024PC                 
DP0138954003220820039418034052498890                           0000020PC                 
DP0138954003220820039428034052498951                           0000024PC                 
DP0138954003220820039438034052498968                           0000024PC                 
DP0138954003220820039448034052498975                           0000012PC                 
DP0138954003220820039458034052498982                           0000024PC                 
DP0138954003220820039468034052498999                           0000012PC                 
DP0138954003220820039478034052499002                           0000024PC                 
DP0138954003220820039488034052499019                           0000024PC                 
DP0138954003220820039498034052499156                           0000015PC                 
DP0138954003220820039508034052499163                           0000015PC                 
DP0138954003220820039518034052499200                           0000020PC                 
DP0138954003220820039528034052499217                           0000020PC                 
DP0138954003220820039538034052499224                           0000016ST                 
DP0138954003220820039548034052372343                           0000024PC                 
DP0138954003220820039558034052560986                           0000006PC                 
DP0138954003220820039578034052561013                           0000004PC                 
DP0138954003220820039598034052564083                           0000012PC                 
DP0138954003220820039608034052564090                           0000024PC                 
DP0138954003220820039638034052581431                           0000024PC                 
DP0138954003220820039648034052581783                           0000096PC                 
DP0138954003220820039658034052581790                           0000036PC                 
DP0138954003220820039668034052581813                           0000096PC                 
DP0138954003220820039688034052586566                           0000024PC                 
DP0138954003220820039698034052590709                           0000048PC                 
DP0138954003220820039708034052590730                           0000048PC                 
DP0138954003220820039718034052590747                           0000036PC                 
DP0138954003220820039748034052393638                           0000012PC                 
DP0138954003220820039758034052399586                           0000024PC                 
DP0138954003220820039768034052457880                           0000020PC                 
DP0138954003220820039788034052477543                           0000008PC                 
DP0138954003220820039798034052477604                           0000018PC                 
DP0138954003220820039808034052488235                           0000016PC                 
DP0138954003220820039818034052488259                           0000018PC                 
DP0138954003220820039828034052493536                           0000012PC                 
DP0138954003220820039838034052493550                           0000012ST                 
DP0138954003220820039848034052561020                           0000004PC                 
DP0138954003220820039858034052561044                           0000012PC                 
DP0138954003220820039868034052561631                           0000012PC                 
DP0138954003220820039878034052561679                           0000012PC                 
DP0138954003220820039888034052561716                           0000012PC                 
DP0138954003220820039898034052561792                           0000024PC                 
DP0138954003220820039908034052561839                           0000012PC                 
DP0138954003220820039918034052561921                           0000012PC                 
DP0138954003220820039928034052562584                           0000006PC                 
DP0138954003220820039938034052562614                           0000004PC                 
DP0138954003220820040038034052572705                           0000008PC                 
DP0138954003220820040048034052572729                           0000012PC                 
DP0138954003220820040078034052573849                           0000012PC                 
DP0138954003220820040088034052573870                           0000018PC                 
DP0138954003220820040098034052573894                           0000032PC                 
DP0138954003220820040108034052573900                           0000018PC                 
DP0138954003220820040118034052573924                           0000032PC                 
DP0138954003220820040128034052573993                           0000012PC                 
DP0138954003220820040148034052575591                           0000012PC                 
DP0138954003220820040158034052576901                           0000006PC                 
DP0138954003220820040458034052580908                           0000002PC                 
DP0138954003220820040468034052581158                           0000006PC                 
DP0138954003220820040478034052581189                           0000006PC                 
DP0138954003220820040488034052581387                           0000008PC                 
DP0138954003220820040508034052581400                           0000024PC                 
DP0138954003220820040518034052581424                           0000012PC                 
DP0138954003220820040528034052581448                           0000024PC                 
DP0138954003220820040538034052581837                           0000048PC                 
DP0138954003220820040548034052582346                           0000006PC                 
DP0138954003220820040558034052582636                           0000018PC                 
DP0138954003220820040568034052583008                           0000024PC                 
DP0138954003220820040588034052583039                           0000072ST                 
DP0138954003220820040608034052583091                           0000024PC                 
DP0138954003220820040628034052586719                           0000001PC                 
DP0138954003220820040638034052589253                           0000001PC                 
DP0138954003220820040648034052589291                           0000001PC                 
DP0138954003220820040658034052590556                           0000012PC                 
DP0138954003220820040678034052592345                           0000012PC                 
DP0138954003220820040698034052596015                           0000001PC                 
DP0138954003220820040708034052596022                           0000001PC                 
DP0138954003220820040718034052596039                           0000001PC                 
DP0138954003220820040728034052596046                           0000001PC                 
DP0138954003220820040738034052596053                           0000004PC                 
DP0138954003220820040748034052596077                           0000004PC                 
DP0138954003220820040758034052596084                           0000004PC                 
DP0138954003220820040768034052596169                           0000012PC                 
DP0138954003220820040778034052596176                           0000012PC                 
DP0138954003220820040788034052596190                           0000012PC                 
DP0138954003220820040798034052598224                           0000004PC                 
DP0138954003220820040808034052598231                           0000006PC                 
DP0138954003220820040818034052598262                           0000006PC                 
DP0138954003220820040828034052598279                           0000008PC                 
DP0138954003220820040838034052598286                           0000006PC                 
DP0138954003220820040848034052598323                           0000004PC                 
DP0138954003220820040858034052598330                           0000006PC                 
DP0138954003220820040868034052598521                           0000006PC                 
DP0138954003220820040888034052662482                           0000036PC                 
DP0138954003220820040978034052665582                           0000012PC                 
DP0138954003220820040988034052665599                           0000008PC                 
DP0138954003220820041008034052690140                           0000012PC                 
DP0138954003220820041018034052690164                           0000006PC                 
DP0138954003220820041028034052690249                           0000024PC                 
DP0138954003220820041038034052690263                           0000012PC                 
DP0138954003220820041048034052692632                           0000012PC                 
DP0138954003220820041058034052693271                           0000004PC                 
DP0138954003220820041068034052693295                           0000004PC                 
DP0138954003220820041078034052693318                           0000004PC                 
DP0138954003220820041088034052693332                           0000004PC                 
DP0138954003220820041098034052693684                           0000036ST                 
DP0138954003220820041118034052693738                           0000024PC                 
DP0138954003220820041128034052693769                           0000024PC                 
DP0138954003220820041138034052693783                           0000012PC                 
DP0138954003220820041148034052695077                           0000002PC                 
DP0138954003220820041158034052695329                           0000006PC                 
DP0138954003220820041168034052695343                           0000004PC                 
DP0138954003220820041178034052695367                           0000002PC                 
DP0138954003220820041188034052695442                           0000008PC                 
DP0138954003220820041198034052695749                           0000002PC                 
DP0138954003220820041208034052695763                           0000002PC                 
DP0138954003220820041218034052696180                           0000004ST                 
DP0138954003220820041228034052696203                           0000004ST                 
DP0138954003220820041308034052697859                           0000012PC                 
DP0138954003220820041338034052698078                           0000006PC                 
OP01389540032208420181015N        1990        KASANOVA S.P.A.                                                       VIALE MONTEROSA, 91                                                   ARCORE                             20043    MIIT 1990        (AFFI) CO. IMPORT C/O CENTRO COMMERCIALE GRAND'AFFI                   LOCALITA' CANOVE 1                                                    AFFI                               37010    VRIT SEDEKLOG00743020968                                   ST                                           18/15644       20180927ZUST  ZUST AMBROSETTI                    *                             137316 StefPepeVend. cliente                 NRBFM12+5                                                    0000000000000094    AFFI                               -                               -                          VERONA                            VR12
DP0138954003220840041478034052393553                           0000012PC                 
DP0138954003220840041488034052393560                           0000012PC                 
DP0138954003220840041498034052393713                           0000012PC                 
DP0138954003220840041508034052372305                           0000012PC                 
DP0138954003220840041538034052393690                           0000012PC                 
DP0138954003220840041548034052393737                           0000012PC                 
DP0138954003220840041558034052397995                           0000020ST                 
DP0138954003220840041588034052290548                           0000024PC                 
DP0138954003220840041598034052488198                           0000012PC                 
DP0138954003220840041608034052488211                           0000032PC                 
DP0138954003220840041618034052488242                           0000018PC                 
DP0138954003220840041628034052488303                           0000018PC                 
DP0138954003220840041638034052498623                           0000024PC                 
DP0138954003220840041648034052498654                           0000048PC                 
DP0138954003220840041658034052498678                           0000012PC                 
DP0138954003220840041668034052498692                           0000012PC                 
DP0138954003220840041678034052498715                           0000006PC                 
DP0138954003220840041688034052498739                           0000012PC                 
DP0138954003220840041698034052498753                           0000006PC                 
DP0138954003220840041708034052498777                           0000012PC                 
DP0138954003220840041718034052498838                           0000024PC                 
DP0138954003220840041738034052498890                           0000010PC                 
DP0138954003220840041748034052498951                           0000012PC                 
DP0138954003220840041758034052498968                           0000012PC                 
DP0138954003220840041768034052498975                           0000012PC                 
DP0138954003220840041778034052498982                           0000012PC                 
DP0138954003220840041788034052498999                           0000012PC                 
DP0138954003220840041798034052499002                           0000012PC                 
DP0138954003220840041808034052499019                           0000012PC                 
DP0138954003220840041818034052499156                           0000010PC                 
DP0138954003220840041828034052499163                           0000010PC                 
DP0138954003220840041838034052499200                           0000010PC                 
DP0138954003220840041848034052499217                           0000010PC                 
DP0138954003220840041858034052499224                           0000016ST                 
DP0138954003220840041868034052372343                           0000024PC                 
DP0138954003220840041878034052561013                           0000004PC                 
DP0138954003220840041888034052564083                           0000012PC                 
DP0138954003220840041918034052581783                           0000072PC                 
DP0138954003220840041928034052581790                           0000024PC                 
DP0138954003220840041938034052581813                           0000060PC                 
DP0138954003220840041958034052586566                           0000024PC                 
DP0138954003220840041968034052590709                           0000024PC                 
DP0138954003220840041978034052590730                           0000024PC                 
DP0138954003220840041988034052590747                           0000024PC                 
DP0138954003220840042018034052393638                           0000006PC                 
DP0138954003220840042028034052457880                           0000010PC                 
DP0138954003220840042048034052477543                           0000004PC                 
DP0138954003220840042058034052477604                           0000012PC                 
DP0138954003220840042068034052488235                           0000016PC                 
DP0138954003220840042078034052493536                           0000006PC                 
DP0138954003220840042088034052493550                           0000012ST                 
DP0138954003220840042098034052561020                           0000004PC                 
DP0138954003220840042108034052561044                           0000008PC                 
DP0138954003220840042118034052561631                           0000012PC                 
DP0138954003220840042128034052561679                           0000012PC                 
DP0138954003220840042138034052561792                           0000024PC                 
DP0138954003220840042148034052561839                           0000012PC                 
DP0138954003220840042158034052561921                           0000012PC                 
DP0138954003220840042168034052562584                           0000006PC                 
DP0138954003220840042178034052562614                           0000004PC                 
DP0138954003220840042288034052573849                           0000012PC                 
DP0138954003220840042298034052573870                           0000018PC                 
DP0138954003220840042308034052573900                           0000018PC                 
DP0138954003220840042318034052573993                           0000012PC                 
DP0138954003220840042338034052575591                           0000012PC                 
DP0138954003220840042348034052576901                           0000006PC                 
DP0138954003220840042578034052581158                           0000006PC                 
DP0138954003220840042588034052581189                           0000006PC                 
DP0138954003220840042598034052581424                           0000012PC                 
DP0138954003220840042608034052581837                           0000036PC                 
DP0138954003220840042618034052582346                           0000006PC                 
DP0138954003220840042628034052582636                           0000018PC                 
DP0138954003220840042638034052583008                           0000024PC                 
DP0138954003220840042658034052583039                           0000036ST                 
DP0138954003220840042678034052583091                           0000024PC                 
DP0138954003220840042688034052590556                           0000012PC                 
DP0138954003220840042708034052592345                           0000012PC                 
DP0138954003220840042728034052596053                           0000004PC                 
DP0138954003220840042738034052596077                           0000004PC                 
DP0138954003220840042748034052596084                           0000004PC                 
DP0138954003220840042758034052596176                           0000012PC                 
DP0138954003220840042768034052596190                           0000012PC                 
DP0138954003220840042778034052598224                           0000004PC                 
DP0138954003220840042788034052598262                           0000006PC                 
DP0138954003220840042798034052598286                           0000006PC                 
DP0138954003220840042808034052598323                           0000004PC                 
DP0138954003220840042818034052598330                           0000006PC                 
DP0138954003220840042828034052598521                           0000006PC                 
DP0138954003220840042848034052662482                           0000036PC                 
DP0138954003220840042878034052665582                           0000012PC                 
DP0138954003220840042888034052665599                           0000008PC                 
DP0138954003220840042898034052690140                           0000012PC                 
DP0138954003220840042908034052690164                           0000006PC                 
DP0138954003220840042918034052690249                           0000024PC                 
DP0138954003220840042928034052690263                           0000012PC                 
DP0138954003220840042938034052692632                           0000012PC                 
DP0138954003220840042948034052693271                           0000004PC                 
DP0138954003220840042958034052693295                           0000004PC                 
DP0138954003220840042968034052693318                           0000004PC                 
DP0138954003220840042978034052693332                           0000004PC                 
DP0138954003220840042988034052693684                           0000036ST                 
DP0138954003220840043008034052693738                           0000024PC                 
DP0138954003220840043018034052693769                           0000024PC                 
DP0138954003220840043028034052695329                           0000006PC                 
DP0138954003220840043038034052695343                           0000004PC                 
DP0138954003220840043048034052695367                           0000002PC                 
DP0138954003220840043108034052697859                           0000012PC                 
DP0138954003220840043128034052698078                           0000006PC                 
OP01389540032208620181015N        1990        KASANOVA S.P.A.                                                       VIALE MONTEROSA, 91                                                   ARCORE                             20043    MIIT 1990        (MIL-MAGH) CO.IMPORT MILANO PIAZZA DIAZ                               PIAZZA DIAZ, 6                                                        MILANO                             20123    MIIT SEDEKLOG00743020968                                   ST                                           18/15645       20180927ZUST  ZUST AMBROSETTI                    S.R.                          137316 StefPepeVend. cliente                 NRBFM12+5                                                    0000000000000094MIL-MAGH                               -                               -                          MILANO                            MI02
DP0138954003220860043238034052393553                           0000024PC                 
DP0138954003220860043248034052393560                           0000024PC                 
DP0138954003220860043258034052393683                           0000012PC                 
DP0138954003220860043268034052393713                           0000012PC                 
DP0138954003220860043278034052372305                           0000012PC                 
DP0138954003220860043308034052393690                           0000024PC                 
DP0138954003220860043318034052393737                           0000012PC                 
DP0138954003220860043328034052397995                           0000020ST                 
DP0138954003220860043368034052290548                           0000048PC                 
DP0138954003220860043378034052488198                           0000012PC                 
DP0138954003220860043388034052488204                           0000032PC                 
DP0138954003220860043398034052488211                           0000032PC                 
DP0138954003220860043408034052488242                           0000018PC                 
DP0138954003220860043418034052488303                           0000018PC                 
DP0138954003220860043438034052498623                           0000036PC                 
DP0138954003220860043448034052498654                           0000072PC                 
DP0138954003220860043458034052498678                           0000012PC                 
DP0138954003220860043468034052498692                           0000012PC                 
DP0138954003220860043478034052498715                           0000012PC                 
DP0138954003220860043488034052498739                           0000024PC                 
DP0138954003220860043498034052498753                           0000012PC                 
DP0138954003220860043508034052498777                           0000012PC                 
DP0138954003220860043518034052498807                           0000024ST                 
DP0138954003220860043528034052498838                           0000024PC                 
DP0138954003220860043548034052498890                           0000020PC                 
DP0138954003220860043558034052498951                           0000024PC                 
DP0138954003220860043568034052498968                           0000024PC                 
DP0138954003220860043578034052498975                           0000012PC                 
DP0138954003220860043588034052498982                           0000024PC                 
DP0138954003220860043598034052498999                           0000012PC                 
DP0138954003220860043608034052499002                           0000024PC                 
DP0138954003220860043618034052499019                           0000024PC                 
DP0138954003220860043628034052499156                           0000015PC                 
DP0138954003220860043638034052499163                           0000015PC                 
DP0138954003220860043648034052499200                           0000020PC                 
DP0138954003220860043658034052499217                           0000020PC                 
DP0138954003220860043668034052499224                           0000016ST                 
DP0138954003220860043678034052372343                           0000024PC                 
DP0138954003220860043688034052560986                           0000006PC                 
DP0138954003220860043708034052561013                           0000004PC                 
DP0138954003220860043728034052564083                           0000012PC                 
DP0138954003220860043768034052581431                           0000024PC                 
DP0138954003220860043778034052581783                           0000096PC                 
DP0138954003220860043788034052581790                           0000036PC                 
DP0138954003220860043798034052581813                           0000096PC                 
DP0138954003220860043818034052586566                           0000024PC                 
DP0138954003220860043838034052590709                           0000048PC                 
DP0138954003220860043848034052590730                           0000048PC                 
DP0138954003220860043858034052590747                           0000036PC                 
DP0138954003220860043918034052393638                           0000012PC                 
DP0138954003220860043928034052399586                           0000024PC                 
DP0138954003220860043938034052457880                           0000020PC                 
DP0138954003220860043958034052477543                           0000008PC                 
DP0138954003220860043968034052477604                           0000018PC                 
DP0138954003220860043978034052488235                           0000016PC                 
DP0138954003220860043988034052488259                           0000018PC                 
DP0138954003220860043998034052493536                           0000012PC                 
DP0138954003220860044008034052493550                           0000012ST                 
DP0138954003220860044018034052561020                           0000004PC                 
DP0138954003220860044028034052561044                           0000012PC                 
DP0138954003220860044038034052561631                           0000012PC                 
DP0138954003220860044048034052561679                           0000012PC                 
DP0138954003220860044058034052561716                           0000012PC                 
DP0138954003220860044068034052561792                           0000024PC                 
DP0138954003220860044078034052561839                           0000012PC                 
DP0138954003220860044088034052561921                           0000012PC                 
DP0138954003220860044098034052562584                           0000006PC                 
DP0138954003220860044108034052562614                           0000004PC                 
DP0138954003220860044208034052572705                           0000008PC                 
DP0138954003220860044218034052572729                           0000012PC                 
DP0138954003220860044248034052573849                           0000012PC                 
DP0138954003220860044258034052573870                           0000018PC                 
DP0138954003220860044268034052573894                           0000032PC                 
DP0138954003220860044278034052573900                           0000018PC                 
DP0138954003220860044288034052573924                           0000032PC                 
DP0138954003220860044298034052573993                           0000012PC                 
DP0138954003220860044318034052575591                           0000012PC                 
DP0138954003220860044338034052576901                           0000006PC                 
DP0138954003220860044658034052581158                           0000006PC                 
DP0138954003220860044668034052581189                           0000006PC                 
DP0138954003220860044678034052581387                           0000008PC                 
DP0138954003220860044698034052581400                           0000024PC                 
DP0138954003220860044708034052581424                           0000012PC                 
DP0138954003220860044718034052581448                           0000024PC                 
DP0138954003220860044728034052581837                           0000048PC                 
DP0138954003220860044738034052582346                           0000006PC                 
DP0138954003220860044748034052582636                           0000018PC                 
DP0138954003220860044758034052583008                           0000024PC                 
DP0138954003220860044778034052583039                           0000072ST                 
DP0138954003220860044798034052583091                           0000024PC                 
DP0138954003220860044818034052586719                           0000001PC                 
DP0138954003220860044828034052589253                           0000001PC                 
DP0138954003220860044838034052589291                           0000001PC                 
DP0138954003220860044848034052590556                           0000012PC                 
DP0138954003220860044868034052592345                           0000012PC                 
DP0138954003220860044888034052596015                           0000001PC                 
DP0138954003220860044898034052596022                           0000001PC                 
DP0138954003220860044908034052596039                           0000001PC                 
DP0138954003220860044918034052596046                           0000001PC                 
DP0138954003220860044928034052596053                           0000004PC                 
DP0138954003220860044938034052596077                           0000004PC                 
DP0138954003220860044948034052596084                           0000004PC                 
DP0138954003220860044958034052596169                           0000012PC                 
DP0138954003220860044968034052596176                           0000012PC                 
DP0138954003220860044978034052596190                           0000012PC                 
DP0138954003220860044988034052598224                           0000004PC                 
DP0138954003220860044998034052598231                           0000006PC                 
DP0138954003220860045008034052598262                           0000006PC                 
DP0138954003220860045018034052598279                           0000008PC                 
DP0138954003220860045028034052598286                           0000006PC                 
DP0138954003220860045038034052598323                           0000004PC                 
DP0138954003220860045048034052598330                           0000006PC                 
DP0138954003220860045058034052598521                           0000006PC                 
DP0138954003220860045078034052662482                           0000036PC                 
DP0138954003220860045168034052665582                           0000012PC                 
DP0138954003220860045178034052665599                           0000008PC                 
DP0138954003220860045198034052690140                           0000012PC                 
DP0138954003220860045208034052690164                           0000006PC                 
DP0138954003220860045218034052690249                           0000024PC                 
DP0138954003220860045228034052690263                           0000012PC                 
DP0138954003220860045238034052692632                           0000012PC                 
DP0138954003220860045248034052693271                           0000004PC                 
DP0138954003220860045258034052693295                           0000004PC                 
DP0138954003220860045268034052693318                           0000004PC                 
DP0138954003220860045278034052693332                           0000004PC                 
DP0138954003220860045288034052693684                           0000036ST                 
DP0138954003220860045308034052693738                           0000024PC                 
DP0138954003220860045318034052693769                           0000024PC                 
DP0138954003220860045328034052693783                           0000012PC                 
DP0138954003220860045338034052695077                           0000002PC                 
DP0138954003220860045348034052695329                           0000006PC                 
DP0138954003220860045358034052695343                           0000004PC                 
DP0138954003220860045368034052695367                           0000002PC                 
DP0138954003220860045378034052695442                           0000008PC                 
DP0138954003220860045388034052695749                           0000002PC                 
DP0138954003220860045408034052696180                           0000004ST                 
DP0138954003220860045418034052696203                           0000004ST                 
DP0138954003220860045498034052697859                           0000012PC                 
DP0138954003220860045528034052698078                           0000006PC                 
OP01389540032208820181015N        1990        KASANOVA S.P.A.                                                       VIALE MONTEROSA, 91                                                   ARCORE                             20043    MIIT 1990        (ORIO AL) CO.IMPORT C.C. ORIO CENTER                                  VIA PORTICO, 60                                                       ORIO AL SERIO                      24050    BGIT SEDEKLOG00743020968                                   ST                                           18/15646       20180927ZUST  ZUST AMBROSETTI                    S.R.                          137316 StefPepeVend. cliente                 NRBFM12+5                                                    0000000000000094 ORIO AL                               -                               -                         BERGAMO                            BG12
DP0138954003220880045678034052393553                           0000012PC                 
DP0138954003220880045688034052393560                           0000012PC                 
DP0138954003220880045698034052393683                           0000012PC                 
DP0138954003220880045708034052393713                           0000012PC                 
DP0138954003220880045718034052372305                           0000012PC                 
DP0138954003220880045748034052393690                           0000024PC                 
DP0138954003220880045758034052393737                           0000012PC                 
DP0138954003220880045768034052397995                           0000020ST                 
DP0138954003220880045808034052290548                           0000048PC                 
DP0138954003220880045818034052488198                           0000012PC                 
DP0138954003220880045828034052488204                           0000032PC                 
DP0138954003220880045838034052488211                           0000032PC                 
DP0138954003220880045848034052488242                           0000018PC                 
DP0138954003220880045858034052488303                           0000018PC                 
DP0138954003220880045878034052498623                           0000036PC                 
DP0138954003220880045888034052498654                           0000072PC                 
DP0138954003220880045898034052498678                           0000012PC                 
DP0138954003220880045908034052498692                           0000012PC                 
DP0138954003220880045918034052498715                           0000012PC                 
DP0138954003220880045928034052498739                           0000024PC                 
DP0138954003220880045938034052498753                           0000012PC                 
DP0138954003220880045948034052498777                           0000012PC                 
DP0138954003220880045958034052498807                           0000024ST                 
DP0138954003220880045968034052498838                           0000024PC                 
DP0138954003220880045988034052498890                           0000020PC                 
DP0138954003220880045998034052498951                           0000024PC                 
DP0138954003220880046008034052498968                           0000024PC                 
DP0138954003220880046018034052498975                           0000012PC                 
DP0138954003220880046028034052498982                           0000024PC                 
DP0138954003220880046038034052498999                           0000012PC                 
DP0138954003220880046048034052499002                           0000024PC                 
DP0138954003220880046058034052499019                           0000024PC                 
DP0138954003220880046068034052499156                           0000015PC                 
DP0138954003220880046078034052499163                           0000015PC                 
DP0138954003220880046088034052499200                           0000020PC                 
DP0138954003220880046098034052499217                           0000020PC                 
DP0138954003220880046108034052499224                           0000016ST                 
DP0138954003220880046118034052372343                           0000024PC                 
DP0138954003220880046128034052560986                           0000006PC                 
DP0138954003220880046148034052561013                           0000004PC                 
DP0138954003220880046168034052564083                           0000012PC                 
DP0138954003220880046208034052581431                           0000024PC                 
DP0138954003220880046218034052581783                           0000096PC                 
DP0138954003220880046228034052581790                           0000036PC                 
DP0138954003220880046238034052581813                           0000096PC                 
DP0138954003220880046258034052586566                           0000024PC                 
DP0138954003220880046268034052590709                           0000048PC                 
DP0138954003220880046278034052590730                           0000048PC                 
DP0138954003220880046288034052590747                           0000036PC                 
DP0138954003220880046318034052393638                           0000012PC                 
DP0138954003220880046328034052399586                           0000024PC                 
DP0138954003220880046338034052457880                           0000020PC                 
DP0138954003220880046358034052477543                           0000008PC                 
DP0138954003220880046368034052477604                           0000006PC                 
DP0138954003220880046378034052488235                           0000016PC                 
DP0138954003220880046388034052488259                           0000018PC                 
DP0138954003220880046398034052493536                           0000012PC                 
DP0138954003220880046408034052493550                           0000012ST                 
DP0138954003220880046418034052561020                           0000004PC                 
DP0138954003220880046428034052561044                           0000012PC                 
DP0138954003220880046438034052561631                           0000012PC                 
DP0138954003220880046448034052561679                           0000012PC                 
DP0138954003220880046458034052561716                           0000012PC                 
DP0138954003220880046468034052561792                           0000024PC                 
DP0138954003220880046478034052561839                           0000012PC                 
DP0138954003220880046488034052561921                           0000012PC                 
DP0138954003220880046498034052562584                           0000006PC                 
DP0138954003220880046508034052562614                           0000004PC                 
DP0138954003220880046608034052572705                           0000008PC                 
DP0138954003220880046618034052572729                           0000012PC                 
DP0138954003220880046648034052573849                           0000012PC                 
DP0138954003220880046658034052573870                           0000018PC                 
DP0138954003220880046668034052573894                           0000032PC                 
DP0138954003220880046678034052573900                           0000018PC                 
DP0138954003220880046688034052573924                           0000032PC                 
DP0138954003220880046698034052573993                           0000012PC                 
DP0138954003220880046718034052575591                           0000012PC                 
DP0138954003220880046728034052576901                           0000006PC                 
DP0138954003220880047038034052581158                           0000006PC                 
DP0138954003220880047048034052581189                           0000006PC                 
DP0138954003220880047058034052581387                           0000008PC                 
DP0138954003220880047078034052581400                           0000024PC                 
DP0138954003220880047088034052581424                           0000012PC                 
DP0138954003220880047098034052581448                           0000024PC                 
DP0138954003220880047108034052581837                           0000048PC                 
DP0138954003220880047118034052582346                           0000006PC                 
DP0138954003220880047128034052582636                           0000018PC                 
DP0138954003220880047138034052583008                           0000024PC                 
DP0138954003220880047158034052583039                           0000072ST                 
DP0138954003220880047178034052583091                           0000024PC                 
DP0138954003220880047198034052586719                           0000001PC                 
DP0138954003220880047208034052589253                           0000001PC                 
DP0138954003220880047218034052589291                           0000001PC                 
DP0138954003220880047228034052590556                           0000012PC                 
DP0138954003220880047248034052592345                           0000012PC                 
DP0138954003220880047268034052596015                           0000001PC                 
DP0138954003220880047278034052596022                           0000001PC                 
DP0138954003220880047288034052596039                           0000001PC                 
DP0138954003220880047298034052596046                           0000001PC                 
DP0138954003220880047308034052596053                           0000004PC                 
DP0138954003220880047318034052596077                           0000004PC                 
DP0138954003220880047328034052596084                           0000004PC                 
DP0138954003220880047338034052596169                           0000012PC                 
DP0138954003220880047348034052596176                           0000012PC                 
DP0138954003220880047358034052596190                           0000012PC                 
DP0138954003220880047368034052598224                           0000004PC                 
DP0138954003220880047378034052598231                           0000006PC                 
DP0138954003220880047388034052598262                           0000006PC                 
DP0138954003220880047398034052598279                           0000008PC                 
DP0138954003220880047408034052598286                           0000006PC                 
DP0138954003220880047418034052598323                           0000004PC                 
DP0138954003220880047428034052598330                           0000006PC                 
DP0138954003220880047438034052598521                           0000006PC                 
DP0138954003220880047458034052662482                           0000036PC                 
DP0138954003220880047548034052665582                           0000012PC                 
DP0138954003220880047558034052665599                           0000008PC                 
DP0138954003220880047578034052690140                           0000012PC                 
DP0138954003220880047588034052690164                           0000006PC                 
DP0138954003220880047598034052690249                           0000024PC                 
DP0138954003220880047608034052690263                           0000012PC                 
DP0138954003220880047618034052692632                           0000012PC                 
DP0138954003220880047628034052693271                           0000004PC                 
DP0138954003220880047638034052693295                           0000004PC                 
DP0138954003220880047648034052693318                           0000004PC                 
DP0138954003220880047658034052693332                           0000004PC                 
DP0138954003220880047668034052693684                           0000036ST                 
DP0138954003220880047688034052693738                           0000024PC                 
DP0138954003220880047698034052693769                           0000024PC                 
DP0138954003220880047708034052693783                           0000012PC                 
DP0138954003220880047718034052695077                           0000002PC                 
DP0138954003220880047728034052695329                           0000006PC                 
DP0138954003220880047738034052695343                           0000004PC                 
DP0138954003220880047748034052695367                           0000002PC                 
DP0138954003220880047758034052695442                           0000008PC                 
DP0138954003220880047768034052695749                           0000002PC                 
DP0138954003220880047788034052696180                           0000004ST                 
DP0138954003220880047798034052696203                           0000004ST                 
DP0138954003220880047878034052697859                           0000012PC                 
DP0138954003220880047908034052698078                           0000006PC                 
OP01389540032209020181015N        1990        KASANOVA S.P.A.                                                       VIALE MONTEROSA, 91                                                   ARCORE                             20043    MIIT 1990        (BIELLA-M) CO.IMPORT C/O C.C. GLI ORSI                                STRADA TROSSI                                                         BIELLA                             13900    BIIT SEDEKLOG00743020968                                   ST                                           18/15647       20180927ZUST  ZUST AMBROSETTI                    *                             137316 StefPepeVend. cliente                 NRBFM12+5                                                    0000000000000094BIELLA-M                               -                               -                        VERCELLI                            VC07
DP0138954003220900048048034052393553                           0000012PC                 
DP0138954003220900048058034052393560                           0000012PC                 
DP0138954003220900048068034052393713                           0000012PC                 
DP0138954003220900048078034052372305                           0000012PC                 
DP0138954003220900048108034052393690                           0000012PC                 
DP0138954003220900048118034052393737                           0000012PC                 
DP0138954003220900048128034052397995                           0000020ST                 
DP0138954003220900048158034052290548                           0000024PC                 
DP0138954003220900048168034052488198                           0000012PC                 
DP0138954003220900048178034052488211                           0000032PC                 
DP0138954003220900048188034052488242                           0000018PC                 
DP0138954003220900048198034052488303                           0000018PC                 
DP0138954003220900048208034052498623                           0000024PC                 
DP0138954003220900048218034052498654                           0000048PC                 
DP0138954003220900048228034052498678                           0000012PC                 
DP0138954003220900048238034052498692                           0000012PC                 
DP0138954003220900048248034052498715                           0000006PC                 
DP0138954003220900048258034052498739                           0000012PC                 
DP0138954003220900048278034052498777                           0000012PC                 
DP0138954003220900048288034052498838                           0000024PC                 
DP0138954003220900048308034052498890                           0000010PC                 
DP0138954003220900048318034052498951                           0000012PC                 
DP0138954003220900048328034052498968                           0000012PC                 
DP0138954003220900048338034052498975                           0000012PC                 
DP0138954003220900048348034052498982                           0000012PC                 
DP0138954003220900048358034052498999                           0000012PC                 
DP0138954003220900048368034052499002                           0000012PC                 
DP0138954003220900048378034052499019                           0000012PC                 
DP0138954003220900048388034052499156                           0000010PC                 
DP0138954003220900048398034052499163                           0000010PC                 
DP0138954003220900048408034052499200                           0000010PC                 
DP0138954003220900048418034052499217                           0000010PC                 
DP0138954003220900048428034052499224                           0000016ST                 
DP0138954003220900048448034052561013                           0000004PC                 
DP0138954003220900048458034052564083                           0000012PC                 
DP0138954003220900048488034052581783                           0000072PC                 
DP0138954003220900048498034052581790                           0000024PC                 
DP0138954003220900048508034052581813                           0000060PC                 
DP0138954003220900048538034052590709                           0000024PC                 
DP0138954003220900048548034052590730                           0000024PC                 
DP0138954003220900048558034052590747                           0000024PC                 
DP0138954003220900048588034052393638                           0000006PC                 
DP0138954003220900048598034052457880                           0000010PC                 
DP0138954003220900048618034052477543                           0000004PC                 
DP0138954003220900048638034052488235                           0000016PC                 
DP0138954003220900048648034052493536                           0000006PC                 
DP0138954003220900048678034052561044                           0000008PC                 
DP0138954003220900048688034052561631                           0000012PC                 
DP0138954003220900048698034052561679                           0000012PC                 
DP0138954003220900048708034052561792                           0000024PC                 
DP0138954003220900048718034052561839                           0000012PC                 
DP0138954003220900048728034052561921                           0000012PC                 
DP0138954003220900048738034052562584                           0000006PC                 
DP0138954003220900048748034052562614                           0000004PC                 
DP0138954003220900048858034052573849                           0000012PC                 
DP0138954003220900048868034052573870                           0000018PC                 
DP0138954003220900048878034052573900                           0000018PC                 
DP0138954003220900048888034052573993                           0000012PC                 
DP0138954003220900048908034052575591                           0000012PC                 
DP0138954003220900048918034052576901                           0000006PC                 
DP0138954003220900049178034052581837                           0000036PC                 
DP0138954003220900049188034052582346                           0000006PC                 
DP0138954003220900049198034052582636                           0000018PC                 
DP0138954003220900049208034052583008                           0000024PC                 
DP0138954003220900049228034052583039                           0000036ST                 
DP0138954003220900049258034052590556                           0000012PC                 
DP0138954003220900049328034052596176                           0000012PC                 
DP0138954003220900049338034052596190                           0000010PC                 
DP0138954003220900049348034052598224                           0000004PC                 
DP0138954003220900049358034052598262                           0000006PC                 
DP0138954003220900049378034052598323                           0000004PC                 
DP0138954003220900049388034052598330                           0000006PC                 
DP0138954003220900049398034052598521                           0000006PC                 
DP0138954003220900049418034052662482                           0000036PC                 
DP0138954003220900049508034052692632                           0000012PC                 
DP0138954003220900049558034052693684                           0000036ST                 
DP0138954003220900049578034052693738                           0000024PC                 
DP0138954003220900049598034052695329                           0000006PC                 
DP0138954003220900049608034052695343                           0000004PC                 
DP0138954003220900049678034052697859                           0000012PC                 
OP01389540032227720181015N        1990        KASANOVA S.P.A.                                                       VIALE MONTEROSA, 91                                                   ARCORE                             20043    MIIT 1990        KASANOVA S.P.A. C/O LA CASA SULL'ALBERO - VALDICHIANA OUTLET VILLAGE  VIA ENZO FERRARI 5                                                    FOIANO DELLA CHIANA                52045    ARIT SEDEKLOG00743020968                                   ST                                           18/15738       20180928ZUST  ZUST AMBROSETTI                    E.R.   *                      137316 StefPepeVend. cliente                 NRBFM12+5                                                    0000000000000094  FOIANO                               -                               -                          BO->AR                              AR
DP0138954003222770049788034052457873                           0000020PC                 
DP0138954003222770049798034052457897                           0000020PC                 
DP0138954003222770049818034052457927                           0000020PC                 
DP0138954003222770049828034052457934                           0000016ST                 
DP0138954003222770049848034052458252                           0000020PC                 
DP0138954003222770049858034052458443                           0000036PC                 
DP0138954003222770049868034052458450                           0000072PC                 
DP0138954003222770049878034052458467                           0000024PC                 
DP0138954003222770049888034052458474                           0000024PC                 
DP0138954003222770049898034052458481                           0000012PC                 
DP0138954003222770049908034052458498                           0000024PC                 
DP0138954003222770049918034052458504                           0000012PC                 
DP0138954003222770049928034052458511                           0000024PC                 
DP0138954003222770049938034052458528                           0000024PC                 
DP0138954003222770049948034052458535                           0000015PC                 
DP0138954003222770049958034052458542                           0000015PC                 
DP0138954003222770049968034052458559                           0000024ST                 
DP0138954003222770049978034052458566                           0000024PC                 
DP0138954003222770049988034052458634                           0000012PC                 
DP0138954003222770049998034052458641                           0000012PC                 
DP0138954003222770050008034052458658                           0000012PC                 
DP0138954003222770050018034052458665                           0000024PC                 
DP0138954003222770050028034052458672                           0000012PC                 
DP0138954003222770050038034052458689                           0000012PC                 
DP0138954003222770050048034052598316                           0000012PC                 
DP0138954003222770050058034052690157                           0000012PC                 
DP0138954003222770050068034052690171                           0000006PC                 
DP0138954003222770050078034052690256                           0000024PC                 
DP0138954003222770050088034052690270                           0000012PC                 
DP0138954003222770050098034052690652                           0000012PC                 
DP0138954003222770050108034052690676                           0000012PC                 
DP0138954003222770050118034052692649                           0000012PC                 
DP0138954003222770050148034052693011                           0000004PC                 
DP0138954003222770050158034052693035                           0000018PC                 
DP0138954003222770050168034052693059                           0000024PC                 
DP0138954003222770050178034052693073                           0000024PC                 
DP0138954003222770050188034052693080                           0000004PC                 
DP0138954003222770050198034052693103                           0000018PC                 
DP0138954003222770050208034052693127                           0000024PC                 
DP0138954003222770050218034052693141                           0000004PC                 
DP0138954003222770050228034052693158                           0000018PC                 
DP0138954003222770050238034052693165                           0000024PC                 
DP0138954003222770050248034052693189                           0000024PC                 
DP0138954003222770050258034052693219                           0000020PC                 
DP0138954003222770050268034052693288                           0000004PC                 
DP0138954003222770050278034052693301                           0000004PC                 
DP0138954003222770050288034052693325                           0000004PC                 
DP0138954003222770050298034052693349                           0000004PC                 
DP0138954003222770050308034052693356                           0000036PC                 
DP0138954003222770050328034052693394                           0000012PC                 
DP0138954003222770050378034052693448                           0000012PC                 
DP0138954003222770050388034052693455                           0000032PC                 
DP0138954003222770050398034052693462                           0000032PC                 
DP0138954003222770050408034052693479                           0000016PC                 
DP0138954003222770050418034052693486                           0000018PC                 
